{
  "contractName": "Match",
  "abi": [
    {
      "anonymous": false,
      "inputs": [
        {
          "indexed": true,
          "internalType": "address",
          "name": "previousOwner",
          "type": "address"
        },
        {
          "indexed": true,
          "internalType": "address",
          "name": "newOwner",
          "type": "address"
        }
      ],
      "name": "OwnershipTransferred",
      "type": "event"
    },
    {
      "inputs": [],
      "name": "awayTeamId",
      "outputs": [
        {
          "internalType": "string",
          "name": "",
          "type": "string"
        }
      ],
      "stateMutability": "view",
      "type": "function"
    },
    {
      "inputs": [],
      "name": "finalResult",
      "outputs": [
        {
          "internalType": "int16",
          "name": "homeTeamScore",
          "type": "int16"
        },
        {
          "internalType": "int16",
          "name": "awayTeamScore",
          "type": "int16"
        }
      ],
      "stateMutability": "view",
      "type": "function"
    },
    {
      "inputs": [],
      "name": "homeTeamId",
      "outputs": [
        {
          "internalType": "string",
          "name": "",
          "type": "string"
        }
      ],
      "stateMutability": "view",
      "type": "function"
    },
    {
      "inputs": [],
      "name": "jackpot",
      "outputs": [
        {
          "internalType": "uint256",
          "name": "",
          "type": "uint256"
        }
      ],
      "stateMutability": "view",
      "type": "function"
    },
    {
      "inputs": [],
      "name": "matchStartDate",
      "outputs": [
        {
          "internalType": "uint256",
          "name": "",
          "type": "uint256"
        }
      ],
      "stateMutability": "view",
      "type": "function"
    },
    {
      "inputs": [],
      "name": "owner",
      "outputs": [
        {
          "internalType": "address",
          "name": "",
          "type": "address"
        }
      ],
      "stateMutability": "view",
      "type": "function"
    },
    {
      "inputs": [],
      "name": "prizeAmount",
      "outputs": [
        {
          "internalType": "uint256",
          "name": "",
          "type": "uint256"
        }
      ],
      "stateMutability": "view",
      "type": "function"
    },
    {
      "inputs": [],
      "name": "renounceOwnership",
      "outputs": [],
      "stateMutability": "nonpayable",
      "type": "function"
    },
    {
      "inputs": [
        {
          "internalType": "address",
          "name": "newOwner",
          "type": "address"
        }
      ],
      "name": "transferOwnership",
      "outputs": [],
      "stateMutability": "nonpayable",
      "type": "function"
    },
    {
      "inputs": [
        {
          "internalType": "string",
          "name": "_homeTeamId",
          "type": "string"
        },
        {
          "internalType": "string",
          "name": "_awayTeamId",
          "type": "string"
        },
        {
          "internalType": "uint256",
          "name": "_matchStartDate",
          "type": "uint256"
        }
      ],
      "name": "initialize",
      "outputs": [],
      "stateMutability": "nonpayable",
      "type": "function"
    },
    {
      "inputs": [
        {
          "internalType": "int16",
          "name": "homeTeamScore",
          "type": "int16"
        },
        {
          "internalType": "int16",
          "name": "awayTeamScore",
          "type": "int16"
        }
      ],
      "name": "placeBet",
      "outputs": [],
      "stateMutability": "payable",
      "type": "function"
    },
    {
      "inputs": [
        {
          "internalType": "address",
          "name": "user",
          "type": "address"
        }
      ],
      "name": "hasPlacedBet",
      "outputs": [
        {
          "internalType": "bool",
          "name": "isIndeed",
          "type": "bool"
        }
      ],
      "stateMutability": "view",
      "type": "function"
    },
    {
      "inputs": [
        {
          "internalType": "int16",
          "name": "homeTeamScore",
          "type": "int16"
        },
        {
          "internalType": "int16",
          "name": "awayTeamScore",
          "type": "int16"
        }
      ],
      "name": "isBetSuccessful",
      "outputs": [
        {
          "internalType": "bool",
          "name": "isIndeed",
          "type": "bool"
        }
      ],
      "stateMutability": "view",
      "type": "function"
    },
    {
      "inputs": [],
      "name": "claimBet",
      "outputs": [
        {
          "internalType": "bool",
          "name": "",
          "type": "bool"
        }
      ],
      "stateMutability": "nonpayable",
      "type": "function"
    },
    {
      "inputs": [
        {
          "internalType": "int16",
          "name": "homeTeamScore",
          "type": "int16"
        },
        {
          "internalType": "int16",
          "name": "awayTeamScore",
          "type": "int16"
        }
      ],
      "name": "setFinalResult",
      "outputs": [],
      "stateMutability": "nonpayable",
      "type": "function"
    }
  ],
  "bytecode": "0x608060405260006006556000600755600061001e6100c260201b60201c565b905080600060026101000a81548173ffffffffffffffffffffffffffffffffffffffff021916908373ffffffffffffffffffffffffffffffffffffffff1602179055508073ffffffffffffffffffffffffffffffffffffffff16600073ffffffffffffffffffffffffffffffffffffffff167f8be0079c531659141344cd1fd0a4f28419497f9722a3daafe3b4186f6b6457e060405160405180910390a3506100ca565b600033905090565b611cf1806100d96000396000f3fe6080604052600436106100e85760003560e01c806377defb581161008a578063b119490e11610059578063b119490e146103f0578063cd23e23f14610559578063f2fde38b146105e9578063f3a8286f1461063a576100e8565b806377defb581461027b578063785fa627146102de5780638da5cb5b146103095780639741623214610360576100e8565b80632d85814a116100c65780632d85814a146101c357806369d81b431461020e5780636b31ee0114610239578063715018a614610264576100e8565b80630e02dcd6146100ed57806311436b561461011c57806323cdfc3c14610185575b600080fd5b3480156100f957600080fd5b50610102610678565b604051808215151515815260200191505060405180910390f35b34801561012857600080fd5b5061016b6004803603602081101561013f57600080fd5b81019080803573ffffffffffffffffffffffffffffffffffffffff1690602001909291905050506109a2565b604051808215151515815260200191505060405180910390f35b6101c16004803603604081101561019b57600080fd5b81019080803560010b9060200190929190803560010b9060200190929190505050610a6a565b005b3480156101cf57600080fd5b5061020c600480360360408110156101e657600080fd5b81019080803560010b9060200190929190803560010b9060200190929190505050610dc9565b005b34801561021a57600080fd5b50610223611114565b6040518082815260200191505060405180910390f35b34801561024557600080fd5b5061024e61111a565b6040518082815260200191505060405180910390f35b34801561027057600080fd5b50610279611120565b005b34801561028757600080fd5b506102c46004803603604081101561029e57600080fd5b81019080803560010b9060200190929190803560010b90602001909291905050506112aa565b604051808215151515815260200191505060405180910390f35b3480156102ea57600080fd5b506102f361143a565b6040518082815260200191505060405180910390f35b34801561031557600080fd5b5061031e611440565b604051808273ffffffffffffffffffffffffffffffffffffffff1673ffffffffffffffffffffffffffffffffffffffff16815260200191505060405180910390f35b34801561036c57600080fd5b50610375611469565b6040518080602001828103825283818151815260200191508051906020019080838360005b838110156103b557808201518184015260208101905061039a565b50505050905090810190601f1680156103e25780820380516001836020036101000a031916815260200191505b509250505060405180910390f35b3480156103fc57600080fd5b506105576004803603606081101561041357600080fd5b810190808035906020019064010000000081111561043057600080fd5b82018360208201111561044257600080fd5b8035906020019184600183028401116401000000008311171561046457600080fd5b91908080601f016020809104026020016040519081016040528093929190818152602001838380828437600081840152601f19601f820116905080830192505050505050509192919290803590602001906401000000008111156104c757600080fd5b8201836020820111156104d957600080fd5b803590602001918460018302840111640100000000831117156104fb57600080fd5b91908080601f016020809104026020016040519081016040528093929190818152602001838380828437600081840152601f19601f82011690508083019250505050505050919291929080359060200190929190505050611507565b005b34801561056557600080fd5b5061056e61180d565b6040518080602001828103825283818151815260200191508051906020019080838360005b838110156105ae578082015181840152602081019050610593565b50505050905090810190601f1680156105db5780820380516001836020036101000a031916815260200191505b509250505060405180910390f35b3480156105f557600080fd5b506106386004803603602081101561060c57600080fd5b81019080803573ffffffffffffffffffffffffffffffffffffffff1690602001909291905050506118ab565b005b34801561064657600080fd5b5061064f611abb565b604051808360010b60010b81526020018260010b60010b81526020019250505060405180910390f35b60006138406005540142116106f5576040517f08c379a000000000000000000000000000000000000000000000000000000000815260040180806020018281038252601b8152602001807f4265742063616e6e6f7420626520636f6c6c656374656420796574000000000081525060200191505060405180910390fd5b7fffffffffffffffffffffffffffffffffffffffffffffffffffffffffffffffff600860000160009054906101000a900460010b60010b13801561076d57507fffffffffffffffffffffffffffffffffffffffffffffffffffffffffffffffff600860000160029054906101000a900460010b60010b135b6107c2576040517f08c379a0000000000000000000000000000000000000000000000000000000008152600401808060200182810382526024815260200180611c986024913960400191505060405180910390fd5b6107cb336109a2565b61083d576040517f08c379a000000000000000000000000000000000000000000000000000000000815260040180806020018281038252601b8152602001807f5573657220686173206e6f7420706c6163656420616e7920626574000000000081525060200191505060405180910390fd5b610845611b06565b600160003373ffffffffffffffffffffffffffffffffffffffff1673ffffffffffffffffffffffffffffffffffffffff1681526020019081526020016000206040518060600160405290816000820160009054906101000a900460ff16151515158152602001600182016040518060400160405290816000820160009054906101000a900460010b60010b60010b81526020016000820160029054906101000a900460010b60010b60010b8152505081526020016002820154815250509050806000015115801561092c575061092b8160200151600001518260200151602001516112aa565b5b156109995760018160000190151590811515815250503373ffffffffffffffffffffffffffffffffffffffff166108fc6007549081150290604051600060405180830381858888f19350505050610998576000816000019015159081151581525050600091505061099f565b5b60019150505b90565b60008060028054905014156109ba5760009050610a65565b8173ffffffffffffffffffffffffffffffffffffffff166002600160008573ffffffffffffffffffffffffffffffffffffffff1673ffffffffffffffffffffffffffffffffffffffff1681526020019081526020016000206002015481548110610a2057fe5b9060005260206000200160009054906101000a900473ffffffffffffffffffffffffffffffffffffffff1673ffffffffffffffffffffffffffffffffffffffff161490505b919050565b610e10600554034210610ae5576040517f08c379a000000000000000000000000000000000000000000000000000000000815260040180806020018281038252600f8152602001807f426574732061726520636c6f736564000000000000000000000000000000000081525060200191505060405180910390fd5b7fffffffffffffffffffffffffffffffffffffffffffffffffffffffffffffffff8260010b138015610b3957507fffffffffffffffffffffffffffffffffffffffffffffffffffffffffffffffff8160010b135b610b8e576040517f08c379a0000000000000000000000000000000000000000000000000000000008152600401808060200182810382526028815260200180611c496028913960400191505060405180910390fd5b610b97336109a2565b15610c4d5760405180604001604052808360010b81526020018260010b815250600160003373ffffffffffffffffffffffffffffffffffffffff1673ffffffffffffffffffffffffffffffffffffffff16815260200190815260200160002060010160008201518160000160006101000a81548161ffff021916908360010b61ffff16021790555060208201518160000160026101000a81548161ffff021916908360010b61ffff160217905550905050610dba565b6002339080600181540180825580915050600190039060005260206000200160009091909190916101000a81548173ffffffffffffffffffffffffffffffffffffffff021916908373ffffffffffffffffffffffffffffffffffffffff16021790555060006001600280549050039050604051806060016040528060001515815260200160405180604001604052808660010b81526020018560010b815250815260200182815250600160003373ffffffffffffffffffffffffffffffffffffffff1673ffffffffffffffffffffffffffffffffffffffff16815260200190815260200160002060008201518160000160006101000a81548160ff02191690831515021790555060208201518160010160008201518160000160006101000a81548161ffff021916908360010b61ffff16021790555060208201518160000160026101000a81548161ffff021916908360010b61ffff160217905550505060408201518160020155905050505b34600654016006819055505050565b610dd1611ae7565b73ffffffffffffffffffffffffffffffffffffffff16600060029054906101000a900473ffffffffffffffffffffffffffffffffffffffff1673ffffffffffffffffffffffffffffffffffffffff1614610e93576040517f08c379a00000000000000000000000000000000000000000000000000000000081526004018080602001828103825260208152602001807f4f776e61626c653a2063616c6c6572206973206e6f7420746865206f776e657281525060200191505060405180910390fd5b7fffffffffffffffffffffffffffffffffffffffffffffffffffffffffffffffff8260010b138015610ee757507fffffffffffffffffffffffffffffffffffffffffffffffffffffffffffffffff8160010b135b610f3c576040517f08c379a0000000000000000000000000000000000000000000000000000000008152600401808060200182810382526028815260200180611c496028913960400191505060405180910390fd5b60405180604001604052808360010b81526020018260010b815250600860008201518160000160006101000a81548161ffff021916908360010b61ffff16021790555060208201518160000160026101000a81548161ffff021916908360010b61ffff160217905550905050600080905060008090505b6002805490508110156110f257610fc8611b06565b6001600060028481548110610fd957fe5b9060005260206000200160009054906101000a900473ffffffffffffffffffffffffffffffffffffffff1673ffffffffffffffffffffffffffffffffffffffff1673ffffffffffffffffffffffffffffffffffffffff1681526020019081526020016000206040518060600160405290816000820160009054906101000a900460ff16151515158152602001600182016040518060400160405290816000820160009054906101000a900460010b60010b60010b81526020016000820160029054906101000a900460010b60010b60010b81525050815260200160028201548152505090506110d88160200151600001518260200151602001516112aa565b156110e4576001830192505b508080600101915050610fb3565b50600081111561110f57806006548161110757fe5b046007819055505b505050565b60055481565b60065481565b611128611ae7565b73ffffffffffffffffffffffffffffffffffffffff16600060029054906101000a900473ffffffffffffffffffffffffffffffffffffffff1673ffffffffffffffffffffffffffffffffffffffff16146111ea576040517f08c379a00000000000000000000000000000000000000000000000000000000081526004018080602001828103825260208152602001807f4f776e61626c653a2063616c6c6572206973206e6f7420746865206f776e657281525060200191505060405180910390fd5b600073ffffffffffffffffffffffffffffffffffffffff16600060029054906101000a900473ffffffffffffffffffffffffffffffffffffffff1673ffffffffffffffffffffffffffffffffffffffff167f8be0079c531659141344cd1fd0a4f28419497f9722a3daafe3b4186f6b6457e060405160405180910390a360008060026101000a81548173ffffffffffffffffffffffffffffffffffffffff021916908373ffffffffffffffffffffffffffffffffffffffff160217905550565b6000613840600554014211611327576040517f08c379a000000000000000000000000000000000000000000000000000000000815260040180806020018281038252601b8152602001807f4265742063616e6e6f7420626520636f6c6c656374656420796574000000000081525060200191505060405180910390fd5b7fffffffffffffffffffffffffffffffffffffffffffffffffffffffffffffffff600860000160009054906101000a900460010b60010b13801561139f57507fffffffffffffffffffffffffffffffffffffffffffffffffffffffffffffffff600860000160029054906101000a900460010b60010b135b6113f4576040517f08c379a0000000000000000000000000000000000000000000000000000000008152600401808060200182810382526024815260200180611c986024913960400191505060405180910390fd5b8260010b600860000160009054906101000a900460010b60010b14801561143257508160010b600860000160029054906101000a900460010b60010b145b905092915050565b60075481565b60008060029054906101000a900473ffffffffffffffffffffffffffffffffffffffff16905090565b60038054600181600116156101000203166002900480601f0160208091040260200160405190810160405280929190818152602001828054600181600116156101000203166002900480156114ff5780601f106114d4576101008083540402835291602001916114ff565b820191906000526020600020905b8154815290600101906020018083116114e257829003601f168201915b505050505081565b61150f611ae7565b73ffffffffffffffffffffffffffffffffffffffff16600060029054906101000a900473ffffffffffffffffffffffffffffffffffffffff1673ffffffffffffffffffffffffffffffffffffffff16146115d1576040517f08c379a00000000000000000000000000000000000000000000000000000000081526004018080602001828103825260208152602001807f4f776e61626c653a2063616c6c6572206973206e6f7420746865206f776e657281525060200191505060405180910390fd5b600060019054906101000a900460ff16806115f057506115ef611aef565b5b8061160757506000809054906101000a900460ff16155b61165c576040517f08c379a000000000000000000000000000000000000000000000000000000000815260040180806020018281038252602e815260200180611c1b602e913960400191505060405180910390fd5b60008060019054906101000a900460ff1615905080156116ac576001600060016101000a81548160ff02191690831515021790555060016000806101000a81548160ff0219169083151502179055505b60008211611705576040517f08c379a0000000000000000000000000000000000000000000000000000000008152600401808060200182810382526027815260200180611c716027913960400191505060405180910390fd5b836003908051906020019061171b929190611b2f565b508260049080519060200190611732929190611b2f565b508160058190555060405180604001604052807fffffffffffffffffffffffffffffffffffffffffffffffffffffffffffffffff60010b81526020017fffffffffffffffffffffffffffffffffffffffffffffffffffffffffffffffff60010b815250600860008201518160000160006101000a81548161ffff021916908360010b61ffff16021790555060208201518160000160026101000a81548161ffff021916908360010b61ffff16021790555090505080156118075760008060016101000a81548160ff0219169083151502179055505b50505050565b60048054600181600116156101000203166002900480601f0160208091040260200160405190810160405280929190818152602001828054600181600116156101000203166002900480156118a35780601f10611878576101008083540402835291602001916118a3565b820191906000526020600020905b81548152906001019060200180831161188657829003601f168201915b505050505081565b6118b3611ae7565b73ffffffffffffffffffffffffffffffffffffffff16600060029054906101000a900473ffffffffffffffffffffffffffffffffffffffff1673ffffffffffffffffffffffffffffffffffffffff1614611975576040517f08c379a00000000000000000000000000000000000000000000000000000000081526004018080602001828103825260208152602001807f4f776e61626c653a2063616c6c6572206973206e6f7420746865206f776e657281525060200191505060405180910390fd5b600073ffffffffffffffffffffffffffffffffffffffff168173ffffffffffffffffffffffffffffffffffffffff1614156119fb576040517f08c379a0000000000000000000000000000000000000000000000000000000008152600401808060200182810382526026815260200180611bf56026913960400191505060405180910390fd5b8073ffffffffffffffffffffffffffffffffffffffff16600060029054906101000a900473ffffffffffffffffffffffffffffffffffffffff1673ffffffffffffffffffffffffffffffffffffffff167f8be0079c531659141344cd1fd0a4f28419497f9722a3daafe3b4186f6b6457e060405160405180910390a380600060026101000a81548173ffffffffffffffffffffffffffffffffffffffff021916908373ffffffffffffffffffffffffffffffffffffffff16021790555050565b60088060000160009054906101000a900460010b908060000160029054906101000a900460010b905082565b600033905090565b6000803090506000813b9050600081149250505090565b6040518060600160405280600015158152602001611b22611baf565b8152602001600081525090565b828054600181600116156101000203166002900490600052602060002090601f016020900481019282601f10611b7057805160ff1916838001178555611b9e565b82800160010185558215611b9e579182015b82811115611b9d578251825591602001919060010190611b82565b5b509050611bab9190611bcf565b5090565b6040518060400160405280600060010b8152602001600060010b81525090565b611bf191905b80821115611bed576000816000905550600101611bd5565b5090565b9056fe4f776e61626c653a206e6577206f776e657220697320746865207a65726f2061646472657373496e697469616c697a61626c653a20636f6e747261637420697320616c726561647920696e697469616c697a656453636f7265206d7573742062652067726561746572207468616e206f7220657175616c20746f20304d617463682073746172742064617465206d7573742062652067726561746572207468616e203046696e616c20726573756c7420686173206e6f74206265656e206c6f6164656420796574a26469706673582212206e6132951a87c8098eb13706a4d8a30640872554d930152761dd3a676b5b185664736f6c63430006000033",
  "source": "// SPDX-License-Identifier: MIT\npragma solidity ^0.6.0;\n\nimport '../node_modules/@openzeppelin/contracts/proxy/Initializable.sol';\nimport '../node_modules/@openzeppelin/contracts/access/Ownable.sol';\n\ncontract Match is Initializable, Ownable {\n  // TODO: add contract status in case a Match is suspended\n  struct MatchResult {\n    int16 homeTeamScore;\n    int16 awayTeamScore;\n  }\n\n  struct Bet {\n    bool payed;\n    MatchResult result;\n    uint listPointer;\n  }\n  mapping (address => Bet) betsMap;\n  address[] gamblers;\n\n  string public homeTeamId;\n  string public awayTeamId;\n  uint public matchStartDate; // Unix timestamp depicting start date\n\n  uint public jackpot = 0;\n  uint public prizeAmount = 0; // Calculated after the final result is know, hold the amount of ether each winner will get\n\n  // TODO: Temporaly store match result\n  MatchResult public finalResult;\n\n  /////////////////////\n  //     Modifiers    //\n  /////////////////////\n\n\n  modifier betsAreOpen() {\n    // Users can place bet up to one hour before the match starts\n    // This is because when creating a block a node can select as timestamp a value that's up to 15 minutes in the future\n    require(\n      block.timestamp < (matchStartDate - 1 hours),\n      'Bets are closed'\n    );\n    _;\n  }\n\n  modifier canCollectPrizes() {\n    // Users can claim bets 4 hours after the match hast started\n    // This is because the time a match ends is not know in advance and because\n    // When creating a block a node can select as timestamp a value that's up to 15 minutes in the future\n    require(\n      block.timestamp > (matchStartDate + 4 hours),\n      'Bet cannot be collected yet'\n    );\n    require(\n      finalResult.homeTeamScore > -1 && finalResult.awayTeamScore > -1,\n      'Final result has not been loaded yet'\n    );\n    _;\n  }\n\n  modifier userHasPlacedBet() {\n    // Validates a user has actually placed a bet for this match\n    require(\n      hasPlacedBet(msg.sender),\n      'User has not placed any bet'\n    );\n    _;\n  }\n\n  // initialize function replaces constructor\n  // check the Initializable contract for further information\n  function initialize(\n    string memory _homeTeamId,\n    string memory _awayTeamId,\n    uint _matchStartDate\n  ) public onlyOwner initializer {\n    require(_matchStartDate > 0, 'Match start date must be greater than 0');\n\n    homeTeamId = _homeTeamId;\n    awayTeamId = _awayTeamId;\n    matchStartDate = _matchStartDate;\n\n    // Init final result with negatives values\n    finalResult = MatchResult({\n      homeTeamScore: -1,\n      awayTeamScore: -1\n    });\n  }\n\n  /////////////////////\n  //  User functions //\n  /////////////////////\n\n\n  function placeBet(\n    int16 homeTeamScore,\n    int16 awayTeamScore\n  ) public payable betsAreOpen {\n    require(\n      homeTeamScore > -1 && awayTeamScore > -1,\n      'Score must be greater than or equal to 0'\n    );\n\n    if(hasPlacedBet(msg.sender)) {\n      // If the user already placed a bet, override current result\n      betsMap[msg.sender].result = MatchResult({\n        homeTeamScore: homeTeamScore,\n        awayTeamScore: awayTeamScore\n      });\n    } else {\n      // If the users has not placed a bet, create and store a new bet\n      gamblers.push(msg.sender);\n      uint index = gamblers.length - 1;\n\n      betsMap[msg.sender] = Bet({\n        payed: false,\n        result: MatchResult({\n          homeTeamScore: homeTeamScore,\n          awayTeamScore: awayTeamScore\n        }),\n        listPointer: index\n      });\n    }\n\n    jackpot = jackpot + msg.value;\n  }\n\n  function hasPlacedBet(address user) public view returns(bool isIndeed) {\n    if(gamblers.length == 0) return false;\n    return (gamblers[betsMap[user].listPointer] == user);\n  }\n\n  function isBetSuccessful(\n    int16 homeTeamScore,\n    int16 awayTeamScore\n  ) public view canCollectPrizes returns(bool isIndeed) {\n    return finalResult.homeTeamScore == homeTeamScore && finalResult.awayTeamScore == awayTeamScore;\n  }\n\n  function claimBet() public canCollectPrizes userHasPlacedBet returns(bool) {\n    Bet memory bet = betsMap[msg.sender];\n\n    // If bet has not been paid yet and is successful\n    if(\n      !bet.payed &&\n      isBetSuccessful(bet.result.homeTeamScore, bet.result.awayTeamScore)\n    ) {\n      // Mark bet as payed\n      bet.payed = true;\n      // Attemp sending money\n      if(!msg.sender.send(prizeAmount)) {\n        bet.payed = false;\n        return false;\n      }\n    }\n\n    return true;\n  }\n\n  /////////////////////\n  // Admin functions //\n  /////////////////////\n\n  function setFinalResult(\n    int16 homeTeamScore,\n    int16 awayTeamScore\n  ) public onlyOwner {\n    require(\n      homeTeamScore > -1 && awayTeamScore > -1,\n      \"Score must be greater than or equal to 0\"\n    );\n  \n    finalResult = MatchResult({\n      homeTeamScore: homeTeamScore,\n      awayTeamScore: awayTeamScore\n    });\n\n    // Calculate amount to pay\n    uint winnersCount = 0;\n\n    for(uint i = 0; i < gamblers.length; i++) {\n      // Count all the bets that were winning bets\n      Bet memory currentBet = betsMap[gamblers[i]];\n      if (isBetSuccessful(currentBet.result.homeTeamScore, currentBet.result.awayTeamScore)) {\n        winnersCount = winnersCount + 1;\n      }\n    }\n\n    // Validate there is at least one winner\n    if(winnersCount > 0) {\n      // uint division will round down the result\n      prizeAmount = jackpot / winnersCount;\n    }\n  }\n}\n",
  "sourcePath": "/Users/surbina/playground/prode/contracts/Match.sol",
  "compiler": {
    "name": "solc",
    "version": "0.6.0+commit.26b70077.Emscripten.clang"
  },
  "schemaVersion": "3.2.5",
  "updatedAt": "2020-12-07T19:13:34.232Z",
  "devdoc": {
    "methods": {
      "owner()": {
        "details": "Returns the address of the current owner."
      },
      "renounceOwnership()": {
        "details": "Leaves the contract without owner. It will not be possible to call `onlyOwner` functions anymore. Can only be called by the current owner.     * NOTE: Renouncing ownership will leave the contract without an owner, thereby removing any functionality that is only available to the owner."
      },
      "transferOwnership(address)": {
        "details": "Transfers ownership of the contract to a new account (`newOwner`). Can only be called by the current owner."
      }
    }
  },
  "userdoc": {
    "methods": {
      "placeBet(int16,int16)": {
        "notice": "//////////////////"
      },
      "setFinalResult(int16,int16)": {
        "notice": "//////////////////"
      }
    }
  }
}