{
  "contractName": "Match",
  "abi": [
    {
      "anonymous": false,
      "inputs": [
        {
          "indexed": true,
          "internalType": "address",
          "name": "previousOwner",
          "type": "address"
        },
        {
          "indexed": true,
          "internalType": "address",
          "name": "newOwner",
          "type": "address"
        }
      ],
      "name": "OwnershipTransferred",
      "type": "event"
    },
    {
      "inputs": [],
      "name": "awayTeamId",
      "outputs": [
        {
          "internalType": "string",
          "name": "",
          "type": "string"
        }
      ],
      "stateMutability": "view",
      "type": "function"
    },
    {
      "inputs": [],
      "name": "finalResult",
      "outputs": [
        {
          "internalType": "int16",
          "name": "homeTeamScore",
          "type": "int16"
        },
        {
          "internalType": "int16",
          "name": "awayTeamScore",
          "type": "int16"
        }
      ],
      "stateMutability": "view",
      "type": "function"
    },
    {
      "inputs": [],
      "name": "homeTeamId",
      "outputs": [
        {
          "internalType": "string",
          "name": "",
          "type": "string"
        }
      ],
      "stateMutability": "view",
      "type": "function"
    },
    {
      "inputs": [],
      "name": "jackpot",
      "outputs": [
        {
          "internalType": "uint256",
          "name": "",
          "type": "uint256"
        }
      ],
      "stateMutability": "view",
      "type": "function"
    },
    {
      "inputs": [],
      "name": "owner",
      "outputs": [
        {
          "internalType": "address",
          "name": "",
          "type": "address"
        }
      ],
      "stateMutability": "view",
      "type": "function"
    },
    {
      "inputs": [],
      "name": "renounceOwnership",
      "outputs": [],
      "stateMutability": "nonpayable",
      "type": "function"
    },
    {
      "inputs": [
        {
          "internalType": "address",
          "name": "newOwner",
          "type": "address"
        }
      ],
      "name": "transferOwnership",
      "outputs": [],
      "stateMutability": "nonpayable",
      "type": "function"
    },
    {
      "inputs": [
        {
          "internalType": "string",
          "name": "_homeTeamId",
          "type": "string"
        },
        {
          "internalType": "string",
          "name": "_awayTeamId",
          "type": "string"
        }
      ],
      "name": "initialize",
      "outputs": [],
      "stateMutability": "nonpayable",
      "type": "function"
    },
    {
      "inputs": [
        {
          "internalType": "int16",
          "name": "homeTeamScore",
          "type": "int16"
        },
        {
          "internalType": "int16",
          "name": "awayTeamScore",
          "type": "int16"
        }
      ],
      "name": "placeBet",
      "outputs": [],
      "stateMutability": "payable",
      "type": "function"
    },
    {
      "inputs": [],
      "name": "claimBet",
      "outputs": [
        {
          "internalType": "bool",
          "name": "",
          "type": "bool"
        }
      ],
      "stateMutability": "nonpayable",
      "type": "function"
    },
    {
      "inputs": [
        {
          "internalType": "int16",
          "name": "homeTeamScore",
          "type": "int16"
        },
        {
          "internalType": "int16",
          "name": "awayTeamScore",
          "type": "int16"
        }
      ],
      "name": "setFinalResult",
      "outputs": [],
      "stateMutability": "nonpayable",
      "type": "function"
    }
  ],
  "bytecode": "0x6080604052600060045560006100196100bd60201b60201c565b905080600060026101000a81548173ffffffffffffffffffffffffffffffffffffffff021916908373ffffffffffffffffffffffffffffffffffffffff1602179055508073ffffffffffffffffffffffffffffffffffffffff16600073ffffffffffffffffffffffffffffffffffffffff167f8be0079c531659141344cd1fd0a4f28419497f9722a3daafe3b4186f6b6457e060405160405180910390a3506100c5565b600033905090565b61134f806100d46000396000f3fe60806040526004361061009c5760003560e01c8063715018a611610064578063715018a6146102e35780638da5cb5b146102fa5780639741623214610351578063cd23e23f146103e1578063f2fde38b14610471578063f3a8286f146104c25761009c565b80630e02dcd6146100a157806323cdfc3c146100d05780632d85814a1461010e5780634cd88b76146101595780636b31ee01146102b8575b600080fd5b3480156100ad57600080fd5b506100b6610500565b604051808215151515815260200191505060405180910390f35b61010c600480360360408110156100e657600080fd5b81019080803560010b9060200190929190803560010b90602001909291905050506106ed565b005b34801561011a57600080fd5b506101576004803603604081101561013157600080fd5b81019080803560010b9060200190929190803560010b906020019092919050505061092b565b005b34801561016557600080fd5b506102b66004803603604081101561017c57600080fd5b810190808035906020019064010000000081111561019957600080fd5b8201836020820111156101ab57600080fd5b803590602001918460018302840111640100000000831117156101cd57600080fd5b91908080601f016020809104026020016040519081016040528093929190818152602001838380828437600081840152601f19601f8201169050808301925050505050505091929192908035906020019064010000000081111561023057600080fd5b82018360208201111561024257600080fd5b8035906020019184600183028401116401000000008311171561026457600080fd5b91908080601f016020809104026020016040519081016040528093929190818152602001838380828437600081840152601f19601f820116905080830192505050505050509192919290505050610a91565b005b3480156102c457600080fd5b506102cd610c6c565b6040518082815260200191505060405180910390f35b3480156102ef57600080fd5b506102f8610c72565b005b34801561030657600080fd5b5061030f610dfc565b604051808273ffffffffffffffffffffffffffffffffffffffff1673ffffffffffffffffffffffffffffffffffffffff16815260200191505060405180910390f35b34801561035d57600080fd5b50610366610e25565b6040518080602001828103825283818151815260200191508051906020019080838360005b838110156103a657808201518184015260208101905061038b565b50505050905090810190601f1680156103d35780820380516001836020036101000a031916815260200191505b509250505060405180910390f35b3480156103ed57600080fd5b506103f6610ec3565b6040518080602001828103825283818151815260200191508051906020019080838360005b8381101561043657808201518184015260208101905061041b565b50505050905090810190601f1680156104635780820380516001836020036101000a031916815260200191505b509250505060405180910390f35b34801561047d57600080fd5b506104c06004803603602081101561049457600080fd5b81019080803573ffffffffffffffffffffffffffffffffffffffff169060200190929190505050610f61565b005b3480156104ce57600080fd5b506104d7611171565b604051808360010b60010b81526020018260010b60010b81526020019250505060405180910390f35b60008060009050600080905060008090505b60038054905081101561063a5760006003828154811061052e57fe5b906000526020600020906002020190503373ffffffffffffffffffffffffffffffffffffffff168160000160009054906101000a900473ffffffffffffffffffffffffffffffffffffffff1673ffffffffffffffffffffffffffffffffffffffff161480156105c85750600560000160009054906101000a900460010b60010b8160010160000160009054906101000a900460010b60010b145b80156105ff5750600560000160029054906101000a900460010b60010b8160010160000160029054906101000a900460010b60010b145b801561061a57508060000160149054906101000a900460ff16155b1561062c57600192508193505061063a565b508080600101915050610512565b5080156106e35760006003838154811061065057fe5b9060005260206000209060020201905060018160000160146101000a81548160ff0219169083151502179055503373ffffffffffffffffffffffffffffffffffffffff166108fc6004549081150290604051600060405180830381858888f193505050506106e15760008160000160146101000a81548160ff021916908315150217905550600093505050506106ea565b505b6001925050505b90565b7fffffffffffffffffffffffffffffffffffffffffffffffffffffffffffffffff8260010b13610768576040517f08c379a00000000000000000000000000000000000000000000000000000000081526004018080602001828103825260328152602001806112e86032913960400191505060405180910390fd5b7fffffffffffffffffffffffffffffffffffffffffffffffffffffffffffffffff8160010b136107e3576040517f08c379a00000000000000000000000000000000000000000000000000000000081526004018080602001828103825260328152602001806112886032913960400191505060405180910390fd5b600360405180606001604052803373ffffffffffffffffffffffffffffffffffffffff16815260200160001515815260200160405180604001604052808660010b81526020018560010b815250815250908060018154018082558091505060019003906000526020600020906002020160009091909190915060008201518160000160006101000a81548173ffffffffffffffffffffffffffffffffffffffff021916908373ffffffffffffffffffffffffffffffffffffffff16021790555060208201518160000160146101000a81548160ff02191690831515021790555060408201518160010160008201518160000160006101000a81548161ffff021916908360010b61ffff16021790555060208201518160000160026101000a81548161ffff021916908360010b61ffff1602179055505050505034600454016004819055505050565b7fffffffffffffffffffffffffffffffffffffffffffffffffffffffffffffffff8260010b136109a6576040517f08c379a00000000000000000000000000000000000000000000000000000000081526004018080602001828103825260328152602001806112e86032913960400191505060405180910390fd5b7fffffffffffffffffffffffffffffffffffffffffffffffffffffffffffffffff8160010b13610a21576040517f08c379a00000000000000000000000000000000000000000000000000000000081526004018080602001828103825260328152602001806112886032913960400191505060405180910390fd5b60405180604001604052808360010b81526020018260010b815250600560008201518160000160006101000a81548161ffff021916908360010b61ffff16021790555060208201518160000160026101000a81548161ffff021916908360010b61ffff1602179055509050505050565b600060019054906101000a900460ff1680610ab05750610aaf61119d565b5b80610ac757506000809054906101000a900460ff16155b610b1c576040517f08c379a000000000000000000000000000000000000000000000000000000000815260040180806020018281038252602e8152602001806112ba602e913960400191505060405180910390fd5b60008060019054906101000a900460ff161590508015610b6c576001600060016101000a81548160ff02191690831515021790555060016000806101000a81548160ff0219169083151502179055505b8260019080519060200190610b829291906111bc565b508160029080519060200190610b999291906111bc565b5060405180604001604052807fffffffffffffffffffffffffffffffffffffffffffffffffffffffffffffffff60010b81526020017fffffffffffffffffffffffffffffffffffffffffffffffffffffffffffffffff60010b815250600560008201518160000160006101000a81548161ffff021916908360010b61ffff16021790555060208201518160000160026101000a81548161ffff021916908360010b61ffff1602179055509050508015610c675760008060016101000a81548160ff0219169083151502179055505b505050565b60045481565b610c7a6111b4565b73ffffffffffffffffffffffffffffffffffffffff16600060029054906101000a900473ffffffffffffffffffffffffffffffffffffffff1673ffffffffffffffffffffffffffffffffffffffff1614610d3c576040517f08c379a00000000000000000000000000000000000000000000000000000000081526004018080602001828103825260208152602001807f4f776e61626c653a2063616c6c6572206973206e6f7420746865206f776e657281525060200191505060405180910390fd5b600073ffffffffffffffffffffffffffffffffffffffff16600060029054906101000a900473ffffffffffffffffffffffffffffffffffffffff1673ffffffffffffffffffffffffffffffffffffffff167f8be0079c531659141344cd1fd0a4f28419497f9722a3daafe3b4186f6b6457e060405160405180910390a360008060026101000a81548173ffffffffffffffffffffffffffffffffffffffff021916908373ffffffffffffffffffffffffffffffffffffffff160217905550565b60008060029054906101000a900473ffffffffffffffffffffffffffffffffffffffff16905090565b60018054600181600116156101000203166002900480601f016020809104026020016040519081016040528092919081815260200182805460018160011615610100020316600290048015610ebb5780601f10610e9057610100808354040283529160200191610ebb565b820191906000526020600020905b815481529060010190602001808311610e9e57829003601f168201915b505050505081565b60028054600181600116156101000203166002900480601f016020809104026020016040519081016040528092919081815260200182805460018160011615610100020316600290048015610f595780601f10610f2e57610100808354040283529160200191610f59565b820191906000526020600020905b815481529060010190602001808311610f3c57829003601f168201915b505050505081565b610f696111b4565b73ffffffffffffffffffffffffffffffffffffffff16600060029054906101000a900473ffffffffffffffffffffffffffffffffffffffff1673ffffffffffffffffffffffffffffffffffffffff161461102b576040517f08c379a00000000000000000000000000000000000000000000000000000000081526004018080602001828103825260208152602001807f4f776e61626c653a2063616c6c6572206973206e6f7420746865206f776e657281525060200191505060405180910390fd5b600073ffffffffffffffffffffffffffffffffffffffff168173ffffffffffffffffffffffffffffffffffffffff1614156110b1576040517f08c379a00000000000000000000000000000000000000000000000000000000081526004018080602001828103825260268152602001806112626026913960400191505060405180910390fd5b8073ffffffffffffffffffffffffffffffffffffffff16600060029054906101000a900473ffffffffffffffffffffffffffffffffffffffff1673ffffffffffffffffffffffffffffffffffffffff167f8be0079c531659141344cd1fd0a4f28419497f9722a3daafe3b4186f6b6457e060405160405180910390a380600060026101000a81548173ffffffffffffffffffffffffffffffffffffffff021916908373ffffffffffffffffffffffffffffffffffffffff16021790555050565b60058060000160009054906101000a900460010b908060000160029054906101000a900460010b905082565b6000803090506000813b9050600081149250505090565b600033905090565b828054600181600116156101000203166002900490600052602060002090601f016020900481019282601f106111fd57805160ff191683800117855561122b565b8280016001018555821561122b579182015b8281111561122a57825182559160200191906001019061120f565b5b509050611238919061123c565b5090565b61125e91905b8082111561125a576000816000905550600101611242565b5090565b9056fe4f776e61626c653a206e6577206f776e657220697320746865207a65726f206164647265737341776179205465616d2053636f7265206d7573742062652067726561746572207468616e206f7220657175616c20746f2030496e697469616c697a61626c653a20636f6e747261637420697320616c726561647920696e697469616c697a6564486f6d65205465616d2053636f7265206d7573742062652067726561746572207468616e206f7220657175616c20746f2030a26469706673582212209f6ddd24942c7560a71aad7a0c7b3d9632c061def359960bf8ff53f035b82c6a64736f6c63430006000033",
  "source": "// SPDX-License-Identifier: MIT\npragma solidity ^0.6.0;\n\nimport '../node_modules/@openzeppelin/contracts/proxy/Initializable.sol';\nimport '../node_modules/@openzeppelin/contracts/access/Ownable.sol';\n\ncontract Match is Initializable, Ownable {\n  struct MatchResult {\n    int16 homeTeamScore;\n    int16 awayTeamScore;\n  }\n\n  struct Bet {\n    address payable author;\n    bool payed;\n    MatchResult result;\n  }\n\n  string public homeTeamId;\n  string public awayTeamId;\n  // uint public matchStartDate; // Unix timestamp depicting start date\n  // uint public matchEndDate; // Unix timestamp depicting end date\n  Bet[] bets; // Using a list allows for a user to make multiple bets\n  uint public jackpot = 0;\n\n  // TODO: Temporaly store match result\n  MatchResult public finalResult;\n\n  // TODO: implement modifiers!\n  // modifier matchHasNotStarted() { require(block.timestamp < time); _; }\n  // modifier matchHasEnded() { require(block.timestamp > time); _; }\n\n  function initialize(string memory _homeTeamId, string memory _awayTeamId) public initializer {\n    homeTeamId = _homeTeamId;\n    awayTeamId = _awayTeamId;\n\n    // Init final result with negatives values\n    finalResult = MatchResult({\n      homeTeamScore: -1,\n      awayTeamScore: -1\n    });\n  }\n\n  function placeBet(int16 homeTeamScore, int16 awayTeamScore) public payable {\n    require(homeTeamScore > -1, \"Home Team Score must be greater than or equal to 0\");\n    require(awayTeamScore > -1, \"Away Team Score must be greater than or equal to 0\");\n\n    bets.push(Bet({\n      result: MatchResult({\n        homeTeamScore: homeTeamScore,\n        awayTeamScore: awayTeamScore\n      }),\n      author: msg.sender,\n      payed: false\n    }));\n\n    jackpot = jackpot + msg.value;\n  }\n\n  function claimBet() public returns(bool) {\n    // TODO: require match end\n  \n    uint selectedBetIndex = 0;\n    bool found = false;\n\n    for(uint i = 0; i < bets.length; i++) {\n      // Find bet\n      // - author === to sender\n      // - bet result === finalResult\n      // - not payed\n      Bet storage currentBet = bets[i];\n      if (\n        currentBet.author == msg.sender &&\n        currentBet.result.homeTeamScore == finalResult.homeTeamScore &&\n        currentBet.result.awayTeamScore == finalResult.awayTeamScore &&\n        !currentBet.payed\n      ) {\n        found = true;\n        selectedBetIndex = i;\n        break;\n      }\n    }\n\n    // If a bet was found\n    if(found) {\n      Bet storage selectedBet = bets[selectedBetIndex];\n\n      // Mark bet as payed\n      selectedBet.payed = true;\n\n      if(!msg.sender.send(jackpot)) {\n        selectedBet.payed = false;\n        return false;\n      }\n    }\n\n    return true;\n  }\n\n  function setFinalResult(int16 homeTeamScore, int16 awayTeamScore) public {\n    require(homeTeamScore > -1, \"Home Team Score must be greater than or equal to 0\");\n    require(awayTeamScore > -1, \"Away Team Score must be greater than or equal to 0\");\n  \n    finalResult = MatchResult({\n      homeTeamScore: homeTeamScore,\n      awayTeamScore: awayTeamScore\n    });\n  }\n}\n",
  "sourcePath": "/Users/surbina/playground/prode/contracts/Match.sol",
  "compiler": {
    "name": "solc",
    "version": "0.6.0+commit.26b70077.Emscripten.clang"
  },
  "schemaVersion": "3.2.5",
  "updatedAt": "2020-12-07T01:12:39.394Z",
  "devdoc": {
    "methods": {
      "owner()": {
        "details": "Returns the address of the current owner."
      },
      "renounceOwnership()": {
        "details": "Leaves the contract without owner. It will not be possible to call `onlyOwner` functions anymore. Can only be called by the current owner.     * NOTE: Renouncing ownership will leave the contract without an owner, thereby removing any functionality that is only available to the owner."
      },
      "transferOwnership(address)": {
        "details": "Transfers ownership of the contract to a new account (`newOwner`). Can only be called by the current owner."
      }
    }
  },
  "userdoc": {
    "methods": {}
  }
}