{
  "contractName": "Match",
  "abi": [
    {
      "inputs": [
        {
          "internalType": "string",
          "name": "_homeTeamId",
          "type": "string"
        },
        {
          "internalType": "string",
          "name": "_awayTeamId",
          "type": "string"
        }
      ],
      "payable": false,
      "stateMutability": "nonpayable",
      "type": "constructor"
    },
    {
      "constant": true,
      "inputs": [],
      "name": "awayTeamId",
      "outputs": [
        {
          "internalType": "string",
          "name": "",
          "type": "string"
        }
      ],
      "payable": false,
      "stateMutability": "view",
      "type": "function"
    },
    {
      "constant": true,
      "inputs": [
        {
          "internalType": "uint256",
          "name": "",
          "type": "uint256"
        }
      ],
      "name": "bets",
      "outputs": [
        {
          "internalType": "address payable",
          "name": "author",
          "type": "address"
        },
        {
          "internalType": "bool",
          "name": "payed",
          "type": "bool"
        },
        {
          "components": [
            {
              "internalType": "uint16",
              "name": "homeTeamScore",
              "type": "uint16"
            },
            {
              "internalType": "uint16",
              "name": "awayTeamScore",
              "type": "uint16"
            }
          ],
          "internalType": "struct Match.MatchResult",
          "name": "result",
          "type": "tuple"
        }
      ],
      "payable": false,
      "stateMutability": "view",
      "type": "function"
    },
    {
      "constant": true,
      "inputs": [],
      "name": "finalResult",
      "outputs": [
        {
          "internalType": "uint16",
          "name": "homeTeamScore",
          "type": "uint16"
        },
        {
          "internalType": "uint16",
          "name": "awayTeamScore",
          "type": "uint16"
        }
      ],
      "payable": false,
      "stateMutability": "view",
      "type": "function"
    },
    {
      "constant": true,
      "inputs": [],
      "name": "homeTeamId",
      "outputs": [
        {
          "internalType": "string",
          "name": "",
          "type": "string"
        }
      ],
      "payable": false,
      "stateMutability": "view",
      "type": "function"
    },
    {
      "constant": false,
      "inputs": [
        {
          "internalType": "uint16",
          "name": "homeTeamScore",
          "type": "uint16"
        },
        {
          "internalType": "uint16",
          "name": "awayTeamScore",
          "type": "uint16"
        }
      ],
      "name": "placeBet",
      "outputs": [],
      "payable": true,
      "stateMutability": "payable",
      "type": "function"
    },
    {
      "constant": false,
      "inputs": [],
      "name": "claimBet",
      "outputs": [
        {
          "internalType": "bool",
          "name": "",
          "type": "bool"
        }
      ],
      "payable": false,
      "stateMutability": "nonpayable",
      "type": "function"
    },
    {
      "constant": false,
      "inputs": [
        {
          "internalType": "uint16",
          "name": "homeTeamScore",
          "type": "uint16"
        },
        {
          "internalType": "uint16",
          "name": "awayTeamScore",
          "type": "uint16"
        }
      ],
      "name": "setFinalResult",
      "outputs": [],
      "payable": false,
      "stateMutability": "nonpayable",
      "type": "function"
    }
  ],
  "bytecode": "0x608060405260006003553480156200001657600080fd5b5060405162000cf238038062000cf283398181016040526200003c919081019062000181565b81600090805190602001906200005492919062000076565b5080600190805190602001906200006d92919062000076565b50505062000285565b828054600181600116156101000203166002900490600052602060002090601f016020900481019282601f10620000b957805160ff1916838001178555620000ea565b82800160010185558215620000ea579182015b82811115620000e9578251825591602001919060010190620000cc565b5b509050620000f99190620000fd565b5090565b6200012291905b808211156200011e57600081600090555060010162000104565b5090565b90565b600082601f8301126200013757600080fd5b81516200014e620001488262000222565b620001f4565b915080825260208301602083018583830111156200016b57600080fd5b620001788382846200024f565b50505092915050565b600080604083850312156200019557600080fd5b600083015167ffffffffffffffff811115620001b057600080fd5b620001be8582860162000125565b925050602083015167ffffffffffffffff811115620001dc57600080fd5b620001ea8582860162000125565b9150509250929050565b6000604051905081810181811067ffffffffffffffff821117156200021857600080fd5b8060405250919050565b600067ffffffffffffffff8211156200023a57600080fd5b601f19601f8301169050602081019050919050565b60005b838110156200026f57808201518184015260208101905062000252565b838111156200027f576000848401525b50505050565b610a5d80620002956000396000f3fe6080604052600436106100705760003560e01c80639ecd636d1161004e5780639ecd636d1461010a578063cd23e23f14610126578063ce1c1e9b14610151578063f3a8286f1461017a57610070565b80630e02dcd61461007557806322af00fa146100a057806397416232146100df575b600080fd5b34801561008157600080fd5b5061008a6101a6565b60405161009791906108d0565b60405180910390f35b3480156100ac57600080fd5b506100c760048036036100c291908101906107cc565b61039b565b6040516100d693929190610899565b60405180910390f35b3480156100eb57600080fd5b506100f4610449565b60405161010191906108eb565b60405180910390f35b610124600480360361011f9190810190610790565b6104e7565b005b34801561013257600080fd5b5061013b61062e565b60405161014891906108eb565b60405180910390f35b34801561015d57600080fd5b5061017860048036036101739190810190610790565b6106cc565b005b34801561018657600080fd5b5061018f610738565b60405161019d92919061090d565b60405180910390f35b60008060009050600080905060008090505b6002805490508110156102e8576000600282815481106101d457fe5b906000526020600020906002020190503373ffffffffffffffffffffffffffffffffffffffff168160000160009054906101000a900473ffffffffffffffffffffffffffffffffffffffff1673ffffffffffffffffffffffffffffffffffffffff161480156102725750600460000160009054906101000a900461ffff1661ffff168160010160000160009054906101000a900461ffff1661ffff16145b80156102ad5750600460000160029054906101000a900461ffff1661ffff168160010160000160029054906101000a900461ffff1661ffff16145b80156102c857508060000160149054906101000a900460ff16155b156102da5760019250819350506102e8565b5080806001019150506101b8565b508015610391576000600283815481106102fe57fe5b9060005260206000209060020201905060018160000160146101000a81548160ff0219169083151502179055503373ffffffffffffffffffffffffffffffffffffffff166108fc6003549081150290604051600060405180830381858888f1935050505061038f5760008160000160146101000a81548160ff02191690831515021790555060009350505050610398565b505b6001925050505b90565b600281815481106103a857fe5b90600052602060002090600202016000915090508060000160009054906101000a900473ffffffffffffffffffffffffffffffffffffffff16908060000160149054906101000a900460ff1690806001016040518060400160405290816000820160009054906101000a900461ffff1661ffff1661ffff1681526020016000820160029054906101000a900461ffff1661ffff1661ffff1681525050905083565b60008054600181600116156101000203166002900480601f0160208091040260200160405190810160405280929190818152602001828054600181600116156101000203166002900480156104df5780601f106104b4576101008083540402835291602001916104df565b820191906000526020600020905b8154815290600101906020018083116104c257829003601f168201915b505050505081565b600260405180606001604052803373ffffffffffffffffffffffffffffffffffffffff16815260200160001515815260200160405180604001604052808661ffff1681526020018561ffff168152508152509080600181540180825580915050906001820390600052602060002090600202016000909192909190915060008201518160000160006101000a81548173ffffffffffffffffffffffffffffffffffffffff021916908373ffffffffffffffffffffffffffffffffffffffff16021790555060208201518160000160146101000a81548160ff02191690831515021790555060408201518160010160008201518160000160006101000a81548161ffff021916908361ffff16021790555060208201518160000160026101000a81548161ffff021916908361ffff160217905550505050505034600354016003819055505050565b60018054600181600116156101000203166002900480601f0160208091040260200160405190810160405280929190818152602001828054600181600116156101000203166002900480156106c45780601f10610699576101008083540402835291602001916106c4565b820191906000526020600020905b8154815290600101906020018083116106a757829003601f168201915b505050505081565b60405180604001604052808361ffff1681526020018261ffff16815250600460008201518160000160006101000a81548161ffff021916908361ffff16021790555060208201518160000160026101000a81548161ffff021916908361ffff1602179055509050505050565b60048060000160009054906101000a900461ffff16908060000160029054906101000a900461ffff16905082565b600081359050610775816109ec565b92915050565b60008135905061078a81610a03565b92915050565b600080604083850312156107a357600080fd5b60006107b185828601610766565b92505060206107c285828601610766565b9150509250929050565b6000602082840312156107de57600080fd5b60006107ec8482850161077b565b91505092915050565b6107fe81610952565b82525050565b61080d81610964565b82525050565b600061081e82610936565b6108288185610941565b93506108388185602086016109a8565b610841816109db565b840191505092915050565b604082016000820151610862600085018261087b565b506020820151610875602085018261087b565b50505050565b61088481610970565b82525050565b61089381610970565b82525050565b60006080820190506108ae60008301866107f5565b6108bb6020830185610804565b6108c8604083018461084c565b949350505050565b60006020820190506108e56000830184610804565b92915050565b600060208201905081810360008301526109058184610813565b905092915050565b6000604082019050610922600083018561088a565b61092f602083018461088a565b9392505050565b600081519050919050565b600082825260208201905092915050565b600061095d8261097e565b9050919050565b60008115159050919050565b600061ffff82169050919050565b600073ffffffffffffffffffffffffffffffffffffffff82169050919050565b6000819050919050565b60005b838110156109c65780820151818401526020810190506109ab565b838111156109d5576000848401525b50505050565b6000601f19601f8301169050919050565b6109f581610970565b8114610a0057600080fd5b50565b610a0c8161099e565b8114610a1757600080fd5b5056fea365627a7a7231582054281b8db80a79f0d2b1ef1a11e73137cec2d5b7ac19167e47dc9f2f4c0eb5b26c6578706572696d656e74616cf564736f6c63430005100040",
  "source": "// SPDX-License-Identifier: MIT\npragma solidity >=0.5.7 <0.7.0;\npragma experimental ABIEncoderV2;\n\ncontract Match {\n  struct MatchResult {\n    uint16 homeTeamScore;\n    uint16 awayTeamScore;\n  }\n\n  struct Bet {\n    address payable author;\n    bool payed;\n    MatchResult result;\n  }\n\n  string public homeTeamId;\n  string public awayTeamId;\n  // uint public matchStartDate; // Unix timestamp depicting start date\n  // uint public matchEndDate; // Unix timestamp depicting end date\n  Bet[] public bets; // Using a list allows for a user to make multiple bets\n  uint jackpot = 0;\n\n  // TODO: Temporaly store match result\n  MatchResult public finalResult;\n\n  // TODO: implement modifiers!\n  // modifier matchHasNotStarted(uint time) { require(block.timestamp < time) _; }\n  // modifier matchHasEnded(uint time) { require(block.timestamp > time) _; }\n\n  // constructor(string _homeTeamId, string _awayTeamId, uint _matchStartDate, uint _matchEndDate) {\n  constructor(string memory _homeTeamId, string memory _awayTeamId) public {\n    homeTeamId = _homeTeamId;\n    awayTeamId = _awayTeamId;\n    // matchStartDate = _matchStartDate;\n    // matchEndDate = _matchEndDate;\n  }\n\n  function placeBet(uint16 homeTeamScore, uint16 awayTeamScore) public payable {\n    bets.push(Bet({\n      result: MatchResult({\n        homeTeamScore: homeTeamScore,\n        awayTeamScore: awayTeamScore\n      }),\n      author: msg.sender,\n      payed: false\n    }));\n\n    jackpot = jackpot + msg.value;\n  }\n\n  function claimBet() public returns(bool) {\n    // TODO: require match end\n  \n    uint selectedBetIndex = 0;\n    bool found = false;\n\n    for(uint i = 0; i < bets.length; i++) {\n      // Find bet\n      // - author === to sender\n      // - bet result === finalResult\n      // - not payed\n      Bet storage currentBet = bets[i];\n      if (\n        currentBet.author == msg.sender &&\n        currentBet.result.homeTeamScore == finalResult.homeTeamScore &&\n        currentBet.result.awayTeamScore == finalResult.awayTeamScore &&\n        !currentBet.payed\n      ) {\n        found = true;\n        selectedBetIndex = i;\n        break;\n      }\n    }\n\n    // If a bet was found\n    if(found) {\n      Bet storage selectedBet = bets[selectedBetIndex];\n\n      // Mark bet as payed\n      selectedBet.payed = true;\n\n      if(!msg.sender.send(jackpot)) {\n        selectedBet.payed = false;\n        return false;\n      }\n    }\n\n    return true;\n  }\n\n  function setFinalResult(uint16 homeTeamScore, uint16 awayTeamScore) public {\n    // test\n    finalResult = MatchResult({\n      homeTeamScore: homeTeamScore,\n      awayTeamScore: awayTeamScore\n    });\n  }\n}\n",
  "sourcePath": "/Users/surbina/playground/prode/contracts/Match.sol",
  "compiler": {
    "name": "solc",
    "version": "0.5.16+commit.9c3226ce.Emscripten.clang"
  },
  "schemaVersion": "3.2.5",
  "updatedAt": "2020-10-26T00:48:27.081Z",
  "devdoc": {
    "methods": {}
  },
  "userdoc": {
    "methods": {}
  }
}