{
  "contractName": "Match",
  "abi": [
    {
      "inputs": [
        {
          "internalType": "string",
          "name": "_homeTeamId",
          "type": "string"
        },
        {
          "internalType": "string",
          "name": "_awayTeamId",
          "type": "string"
        }
      ],
      "stateMutability": "nonpayable",
      "type": "constructor"
    },
    {
      "inputs": [],
      "name": "awayTeamId",
      "outputs": [
        {
          "internalType": "string",
          "name": "",
          "type": "string"
        }
      ],
      "stateMutability": "view",
      "type": "function"
    },
    {
      "inputs": [],
      "name": "finalResult",
      "outputs": [
        {
          "internalType": "uint16",
          "name": "homeTeamScore",
          "type": "uint16"
        },
        {
          "internalType": "uint16",
          "name": "awayTeamScore",
          "type": "uint16"
        }
      ],
      "stateMutability": "view",
      "type": "function"
    },
    {
      "inputs": [],
      "name": "homeTeamId",
      "outputs": [
        {
          "internalType": "string",
          "name": "",
          "type": "string"
        }
      ],
      "stateMutability": "view",
      "type": "function"
    },
    {
      "inputs": [],
      "name": "jackpot",
      "outputs": [
        {
          "internalType": "uint256",
          "name": "",
          "type": "uint256"
        }
      ],
      "stateMutability": "view",
      "type": "function"
    },
    {
      "inputs": [
        {
          "internalType": "uint16",
          "name": "homeTeamScore",
          "type": "uint16"
        },
        {
          "internalType": "uint16",
          "name": "awayTeamScore",
          "type": "uint16"
        }
      ],
      "name": "placeBet",
      "outputs": [],
      "stateMutability": "payable",
      "type": "function"
    },
    {
      "inputs": [],
      "name": "claimBet",
      "outputs": [
        {
          "internalType": "bool",
          "name": "",
          "type": "bool"
        }
      ],
      "stateMutability": "nonpayable",
      "type": "function"
    },
    {
      "inputs": [
        {
          "internalType": "uint16",
          "name": "homeTeamScore",
          "type": "uint16"
        },
        {
          "internalType": "uint16",
          "name": "awayTeamScore",
          "type": "uint16"
        }
      ],
      "name": "setFinalResult",
      "outputs": [],
      "stateMutability": "nonpayable",
      "type": "function"
    }
  ],
  "bytecode": "0x6080604052600060035534801561001557600080fd5b50604051610a9c380380610a9c8339818101604052604081101561003857600080fd5b810190808051604051939291908464010000000082111561005857600080fd5b8382019150602082018581111561006e57600080fd5b825186600182028301116401000000008211171561008b57600080fd5b8083526020830192505050908051906020019080838360005b838110156100bf5780820151818401526020810190506100a4565b50505050905090810190601f1680156100ec5780820380516001836020036101000a031916815260200191505b506040526020018051604051939291908464010000000082111561010f57600080fd5b8382019150602082018581111561012557600080fd5b825186600182028301116401000000008211171561014257600080fd5b8083526020830192505050908051906020019080838360005b8381101561017657808201518184015260208101905061015b565b50505050905090810190601f1680156101a35780820380516001836020036101000a031916815260200191505b5060405250505081600090805190602001906101c09291906101df565b5080600190805190602001906101d79291906101df565b505050610284565b828054600181600116156101000203166002900490600052602060002090601f016020900481019282601f1061022057805160ff191683800117855561024e565b8280016001018555821561024e579182015b8281111561024d578251825591602001919060010190610232565b5b50905061025b919061025f565b5090565b61028191905b8082111561027d576000816000905550600101610265565b5090565b90565b610809806102936000396000f3fe6080604052600436106100705760003560e01c80639ecd636d1161004e5780639ecd636d1461015f578063cd23e23f1461019f578063ce1c1e9b1461022f578063f3a8286f1461027c57610070565b80630e02dcd6146100755780636b31ee01146100a457806397416232146100cf575b600080fd5b34801561008157600080fd5b5061008a6102be565b604051808215151515815260200191505060405180910390f35b3480156100b057600080fd5b506100b96104b3565b6040518082815260200191505060405180910390f35b3480156100db57600080fd5b506100e46104b9565b6040518080602001828103825283818151815260200191508051906020019080838360005b83811015610124578082015181840152602081019050610109565b50505050905090810190601f1680156101515780820380516001836020036101000a031916815260200191505b509250505060405180910390f35b61019d6004803603604081101561017557600080fd5b81019080803561ffff169060200190929190803561ffff169060200190929190505050610557565b005b3480156101ab57600080fd5b506101b461069b565b6040518080602001828103825283818151815260200191508051906020019080838360005b838110156101f45780820151818401526020810190506101d9565b50505050905090810190601f1680156102215780820380516001836020036101000a031916815260200191505b509250505060405180910390f35b34801561023b57600080fd5b5061027a6004803603604081101561025257600080fd5b81019080803561ffff169060200190929190803561ffff169060200190929190505050610739565b005b34801561028857600080fd5b506102916107a5565b604051808361ffff1661ffff1681526020018261ffff1661ffff1681526020019250505060405180910390f35b60008060009050600080905060008090505b600280549050811015610400576000600282815481106102ec57fe5b906000526020600020906002020190503373ffffffffffffffffffffffffffffffffffffffff168160000160009054906101000a900473ffffffffffffffffffffffffffffffffffffffff1673ffffffffffffffffffffffffffffffffffffffff1614801561038a5750600460000160009054906101000a900461ffff1661ffff168160010160000160009054906101000a900461ffff1661ffff16145b80156103c55750600460000160029054906101000a900461ffff1661ffff168160010160000160029054906101000a900461ffff1661ffff16145b80156103e057508060000160149054906101000a900460ff16155b156103f2576001925081935050610400565b5080806001019150506102d0565b5080156104a95760006002838154811061041657fe5b9060005260206000209060020201905060018160000160146101000a81548160ff0219169083151502179055503373ffffffffffffffffffffffffffffffffffffffff166108fc6003549081150290604051600060405180830381858888f193505050506104a75760008160000160146101000a81548160ff021916908315150217905550600093505050506104b0565b505b6001925050505b90565b60035481565b60008054600181600116156101000203166002900480601f01602080910402602001604051908101604052809291908181526020018280546001816001161561010002031660029004801561054f5780601f106105245761010080835404028352916020019161054f565b820191906000526020600020905b81548152906001019060200180831161053257829003601f168201915b505050505081565b600260405180606001604052803373ffffffffffffffffffffffffffffffffffffffff16815260200160001515815260200160405180604001604052808661ffff1681526020018561ffff16815250815250908060018154018082558091505060019003906000526020600020906002020160009091909190915060008201518160000160006101000a81548173ffffffffffffffffffffffffffffffffffffffff021916908373ffffffffffffffffffffffffffffffffffffffff16021790555060208201518160000160146101000a81548160ff02191690831515021790555060408201518160010160008201518160000160006101000a81548161ffff021916908361ffff16021790555060208201518160000160026101000a81548161ffff021916908361ffff1602179055505050505034600354016003819055505050565b60018054600181600116156101000203166002900480601f0160208091040260200160405190810160405280929190818152602001828054600181600116156101000203166002900480156107315780601f1061070657610100808354040283529160200191610731565b820191906000526020600020905b81548152906001019060200180831161071457829003601f168201915b505050505081565b60405180604001604052808361ffff1681526020018261ffff16815250600460008201518160000160006101000a81548161ffff021916908361ffff16021790555060208201518160000160026101000a81548161ffff021916908361ffff1602179055509050505050565b60048060000160009054906101000a900461ffff16908060000160029054906101000a900461ffff1690508256fea264697066735822122013a78b437957f3fc2a2df743c4b09f95c7506f5ddc9b5277b3655f9333bcfe9e64736f6c63430006000033",
  "source": "// SPDX-License-Identifier: MIT\npragma solidity ^0.6.0;\n\ncontract Match {\n  struct MatchResult {\n    uint16 homeTeamScore;\n    uint16 awayTeamScore;\n  }\n\n  struct Bet {\n    address payable author;\n    bool payed;\n    MatchResult result;\n  }\n\n  string public homeTeamId;\n  string public awayTeamId;\n  // uint public matchStartDate; // Unix timestamp depicting start date\n  // uint public matchEndDate; // Unix timestamp depicting end date\n  Bet[] bets; // Using a list allows for a user to make multiple bets\n  uint public jackpot = 0;\n\n  // TODO: Temporaly store match result\n  MatchResult public finalResult;\n\n  // TODO: implement modifiers!\n  // modifier matchHasNotStarted() { require(block.timestamp < time); _; }\n  // modifier matchHasEnded() { require(block.timestamp > time); _; }\n\n  // constructor(string _homeTeamId, string _awayTeamId, uint _matchStartDate, uint _matchEndDate) {\n  constructor(string memory _homeTeamId, string memory _awayTeamId) public {\n    homeTeamId = _homeTeamId;\n    awayTeamId = _awayTeamId;\n    // matchStartDate = _matchStartDate;\n    // matchEndDate = _matchEndDate;\n  }\n\n  function placeBet(uint16 homeTeamScore, uint16 awayTeamScore) public payable {\n    bets.push(Bet({\n      result: MatchResult({\n        homeTeamScore: homeTeamScore,\n        awayTeamScore: awayTeamScore\n      }),\n      author: msg.sender,\n      payed: false\n    }));\n\n    jackpot = jackpot + msg.value;\n  }\n\n  function claimBet() public returns(bool) {\n    // TODO: require match end\n  \n    uint selectedBetIndex = 0;\n    bool found = false;\n\n    for(uint i = 0; i < bets.length; i++) {\n      // Find bet\n      // - author === to sender\n      // - bet result === finalResult\n      // - not payed\n      Bet storage currentBet = bets[i];\n      if (\n        currentBet.author == msg.sender &&\n        currentBet.result.homeTeamScore == finalResult.homeTeamScore &&\n        currentBet.result.awayTeamScore == finalResult.awayTeamScore &&\n        !currentBet.payed\n      ) {\n        found = true;\n        selectedBetIndex = i;\n        break;\n      }\n    }\n\n    // If a bet was found\n    if(found) {\n      Bet storage selectedBet = bets[selectedBetIndex];\n\n      // Mark bet as payed\n      selectedBet.payed = true;\n\n      if(!msg.sender.send(jackpot)) {\n        selectedBet.payed = false;\n        return false;\n      }\n    }\n\n    return true;\n  }\n\n  function setFinalResult(uint16 homeTeamScore, uint16 awayTeamScore) public {\n    // test\n    finalResult = MatchResult({\n      homeTeamScore: homeTeamScore,\n      awayTeamScore: awayTeamScore\n    });\n  }\n}\n",
  "sourcePath": "/Users/surbina/playground/prode/contracts/Match.sol",
  "compiler": {
    "name": "solc",
    "version": "0.6.0+commit.26b70077.Emscripten.clang"
  },
  "schemaVersion": "3.2.5",
  "updatedAt": "2020-11-01T23:59:42.174Z",
  "devdoc": {
    "methods": {}
  },
  "userdoc": {
    "methods": {}
  }
}