{
  "contractName": "Match",
  "abi": [
    {
      "inputs": [],
      "name": "awayTeamId",
      "outputs": [
        {
          "internalType": "string",
          "name": "",
          "type": "string"
        }
      ],
      "stateMutability": "view",
      "type": "function",
      "constant": true
    },
    {
      "inputs": [],
      "name": "finalResult",
      "outputs": [
        {
          "internalType": "uint16",
          "name": "homeTeamScore",
          "type": "uint16"
        },
        {
          "internalType": "uint16",
          "name": "awayTeamScore",
          "type": "uint16"
        }
      ],
      "stateMutability": "view",
      "type": "function",
      "constant": true
    },
    {
      "inputs": [],
      "name": "homeTeamId",
      "outputs": [
        {
          "internalType": "string",
          "name": "",
          "type": "string"
        }
      ],
      "stateMutability": "view",
      "type": "function",
      "constant": true
    },
    {
      "inputs": [],
      "name": "jackpot",
      "outputs": [
        {
          "internalType": "uint256",
          "name": "",
          "type": "uint256"
        }
      ],
      "stateMutability": "view",
      "type": "function",
      "constant": true
    },
    {
      "inputs": [
        {
          "internalType": "string",
          "name": "_homeTeamId",
          "type": "string"
        },
        {
          "internalType": "string",
          "name": "_awayTeamId",
          "type": "string"
        }
      ],
      "name": "initialize",
      "outputs": [],
      "stateMutability": "nonpayable",
      "type": "function"
    },
    {
      "inputs": [
        {
          "internalType": "uint16",
          "name": "homeTeamScore",
          "type": "uint16"
        },
        {
          "internalType": "uint16",
          "name": "awayTeamScore",
          "type": "uint16"
        }
      ],
      "name": "placeBet",
      "outputs": [],
      "stateMutability": "payable",
      "type": "function",
      "payable": true
    },
    {
      "inputs": [],
      "name": "claimBet",
      "outputs": [
        {
          "internalType": "bool",
          "name": "",
          "type": "bool"
        }
      ],
      "stateMutability": "nonpayable",
      "type": "function"
    },
    {
      "inputs": [
        {
          "internalType": "uint16",
          "name": "homeTeamScore",
          "type": "uint16"
        },
        {
          "internalType": "uint16",
          "name": "awayTeamScore",
          "type": "uint16"
        }
      ],
      "name": "setFinalResult",
      "outputs": [],
      "stateMutability": "nonpayable",
      "type": "function"
    }
  ],
  "bytecode": "0x6080604052600060045534801561001557600080fd5b50610b8c806100256000396000f3fe60806040526004361061007b5760003560e01c80639ecd636d1161004e5780639ecd636d146102c9578063cd23e23f14610309578063ce1c1e9b14610399578063f3a8286f146103e65761007b565b80630e02dcd6146100805780634cd88b76146100af5780636b31ee011461020e5780639741623214610239575b600080fd5b34801561008c57600080fd5b50610095610428565b604051808215151515815260200191505060405180910390f35b3480156100bb57600080fd5b5061020c600480360360408110156100d257600080fd5b81019080803590602001906401000000008111156100ef57600080fd5b82018360208201111561010157600080fd5b8035906020019184600183028401116401000000008311171561012357600080fd5b91908080601f016020809104026020016040519081016040528093929190818152602001838380828437600081840152601f19601f8201169050808301925050505050505091929192908035906020019064010000000081111561018657600080fd5b82018360208201111561019857600080fd5b803590602001918460018302840111640100000000831117156101ba57600080fd5b91908080601f016020809104026020016040519081016040528093929190818152602001838380828437600081840152601f19601f82011690508083019250505050505050919291929050505061061d565b005b34801561021a57600080fd5b5061022361074c565b6040518082815260200191505060405180910390f35b34801561024557600080fd5b5061024e610752565b6040518080602001828103825283818151815260200191508051906020019080838360005b8381101561028e578082015181840152602081019050610273565b50505050905090810190601f1680156102bb5780820380516001836020036101000a031916815260200191505b509250505060405180910390f35b610307600480360360408110156102df57600080fd5b81019080803561ffff169060200190929190803561ffff1690602001909291905050506107f0565b005b34801561031557600080fd5b5061031e610934565b6040518080602001828103825283818151815260200191508051906020019080838360005b8381101561035e578082015181840152602081019050610343565b50505050905090810190601f16801561038b5780820380516001836020036101000a031916815260200191505b509250505060405180910390f35b3480156103a557600080fd5b506103e4600480360360408110156103bc57600080fd5b81019080803561ffff169060200190929190803561ffff1690602001909291905050506109d2565b005b3480156103f257600080fd5b506103fb610a3e565b604051808361ffff1661ffff1681526020018261ffff1661ffff1681526020019250505060405180910390f35b60008060009050600080905060008090505b60038054905081101561056a5760006003828154811061045657fe5b906000526020600020906002020190503373ffffffffffffffffffffffffffffffffffffffff168160000160009054906101000a900473ffffffffffffffffffffffffffffffffffffffff1673ffffffffffffffffffffffffffffffffffffffff161480156104f45750600560000160009054906101000a900461ffff1661ffff168160010160000160009054906101000a900461ffff1661ffff16145b801561052f5750600560000160029054906101000a900461ffff1661ffff168160010160000160029054906101000a900461ffff1661ffff16145b801561054a57508060000160149054906101000a900460ff16155b1561055c57600192508193505061056a565b50808060010191505061043a565b5080156106135760006003838154811061058057fe5b9060005260206000209060020201905060018160000160146101000a81548160ff0219169083151502179055503373ffffffffffffffffffffffffffffffffffffffff166108fc6004549081150290604051600060405180830381858888f193505050506106115760008160000160146101000a81548160ff0219169083151502179055506000935050505061061a565b505b6001925050505b90565b600060019054906101000a900460ff168061063c575061063b610a6c565b5b8061065357506000809054906101000a900460ff16155b6106a8576040517f08c379a000000000000000000000000000000000000000000000000000000000815260040180806020018281038252602e815260200180610b29602e913960400191505060405180910390fd5b60008060019054906101000a900460ff1615905080156106f8576001600060016101000a81548160ff02191690831515021790555060016000806101000a81548160ff0219169083151502179055505b826001908051906020019061070e929190610a83565b508160029080519060200190610725929190610a83565b5080156107475760008060016101000a81548160ff0219169083151502179055505b505050565b60045481565b60018054600181600116156101000203166002900480601f0160208091040260200160405190810160405280929190818152602001828054600181600116156101000203166002900480156107e85780601f106107bd576101008083540402835291602001916107e8565b820191906000526020600020905b8154815290600101906020018083116107cb57829003601f168201915b505050505081565b600360405180606001604052803373ffffffffffffffffffffffffffffffffffffffff16815260200160001515815260200160405180604001604052808661ffff1681526020018561ffff16815250815250908060018154018082558091505060019003906000526020600020906002020160009091909190915060008201518160000160006101000a81548173ffffffffffffffffffffffffffffffffffffffff021916908373ffffffffffffffffffffffffffffffffffffffff16021790555060208201518160000160146101000a81548160ff02191690831515021790555060408201518160010160008201518160000160006101000a81548161ffff021916908361ffff16021790555060208201518160000160026101000a81548161ffff021916908361ffff1602179055505050505034600454016004819055505050565b60028054600181600116156101000203166002900480601f0160208091040260200160405190810160405280929190818152602001828054600181600116156101000203166002900480156109ca5780601f1061099f576101008083540402835291602001916109ca565b820191906000526020600020905b8154815290600101906020018083116109ad57829003601f168201915b505050505081565b60405180604001604052808361ffff1681526020018261ffff16815250600560008201518160000160006101000a81548161ffff021916908361ffff16021790555060208201518160000160026101000a81548161ffff021916908361ffff1602179055509050505050565b60058060000160009054906101000a900461ffff16908060000160029054906101000a900461ffff16905082565b6000803090506000813b9050600081149250505090565b828054600181600116156101000203166002900490600052602060002090601f016020900481019282601f10610ac457805160ff1916838001178555610af2565b82800160010185558215610af2579182015b82811115610af1578251825591602001919060010190610ad6565b5b509050610aff9190610b03565b5090565b610b2591905b80821115610b21576000816000905550600101610b09565b5090565b9056fe496e697469616c697a61626c653a20636f6e747261637420697320616c726561647920696e697469616c697a6564a26469706673582212209cd4eb047a02670f144a2c3af655bbe4c3789e6489187150244320c440d6524264736f6c63430006000033",
  "source": "// SPDX-License-Identifier: MIT\npragma solidity ^0.6.0;\n\nimport '../node_modules/@openzeppelin/contracts/proxy/Initializable.sol';\n\ncontract Match is Initializable {\n  struct MatchResult {\n    uint16 homeTeamScore;\n    uint16 awayTeamScore;\n  }\n\n  struct Bet {\n    address payable author;\n    bool payed;\n    MatchResult result;\n  }\n\n  string public homeTeamId;\n  string public awayTeamId;\n  // uint public matchStartDate; // Unix timestamp depicting start date\n  // uint public matchEndDate; // Unix timestamp depicting end date\n  Bet[] bets; // Using a list allows for a user to make multiple bets\n  uint public jackpot = 0;\n\n  // TODO: Temporaly store match result\n  MatchResult public finalResult;\n\n  // TODO: implement modifiers!\n  // modifier matchHasNotStarted() { require(block.timestamp < time); _; }\n  // modifier matchHasEnded() { require(block.timestamp > time); _; }\n\n  // constructor(string _homeTeamId, string _awayTeamId, uint _matchStartDate, uint _matchEndDate) {\n  // constructor(string memory _homeTeamId, string memory _awayTeamId) public {\n  //   homeTeamId = _homeTeamId;\n  //   awayTeamId = _awayTeamId;\n  //   // matchStartDate = _matchStartDate;\n  //   // matchEndDate = _matchEndDate;\n  // }\n\n  function initialize(string memory _homeTeamId, string memory _awayTeamId) public initializer {\n    homeTeamId = _homeTeamId;\n    awayTeamId = _awayTeamId;\n  }\n\n  function placeBet(uint16 homeTeamScore, uint16 awayTeamScore) public payable {\n    bets.push(Bet({\n      result: MatchResult({\n        homeTeamScore: homeTeamScore,\n        awayTeamScore: awayTeamScore\n      }),\n      author: msg.sender,\n      payed: false\n    }));\n\n    jackpot = jackpot + msg.value;\n  }\n\n  function claimBet() public returns(bool) {\n    // TODO: require match end\n  \n    uint selectedBetIndex = 0;\n    bool found = false;\n\n    for(uint i = 0; i < bets.length; i++) {\n      // Find bet\n      // - author === to sender\n      // - bet result === finalResult\n      // - not payed\n      Bet storage currentBet = bets[i];\n      if (\n        currentBet.author == msg.sender &&\n        currentBet.result.homeTeamScore == finalResult.homeTeamScore &&\n        currentBet.result.awayTeamScore == finalResult.awayTeamScore &&\n        !currentBet.payed\n      ) {\n        found = true;\n        selectedBetIndex = i;\n        break;\n      }\n    }\n\n    // If a bet was found\n    if(found) {\n      Bet storage selectedBet = bets[selectedBetIndex];\n\n      // Mark bet as payed\n      selectedBet.payed = true;\n\n      if(!msg.sender.send(jackpot)) {\n        selectedBet.payed = false;\n        return false;\n      }\n    }\n\n    return true;\n  }\n\n  function setFinalResult(uint16 homeTeamScore, uint16 awayTeamScore) public {\n    // test\n    finalResult = MatchResult({\n      homeTeamScore: homeTeamScore,\n      awayTeamScore: awayTeamScore\n    });\n  }\n}\n",
  "sourcePath": "/Users/surbina/playground/prode/contracts/Match.sol",
  "compiler": {
    "name": "solc",
    "version": "0.6.0+commit.26b70077.Emscripten.clang"
  },
  "schemaVersion": "3.2.5",
  "updatedAt": "2020-11-16T23:33:24.591Z",
  "networkType": "ethereum",
  "devdoc": {
    "methods": {}
  },
  "userdoc": {
    "methods": {}
  }
}