{
  "contractName": "Match",
  "abi": [
    {
      "inputs": [],
      "name": "awayTeamId",
      "outputs": [
        {
          "internalType": "string",
          "name": "",
          "type": "string"
        }
      ],
      "stateMutability": "view",
      "type": "function",
      "constant": true
    },
    {
      "inputs": [],
      "name": "finalResult",
      "outputs": [
        {
          "internalType": "int16",
          "name": "homeTeamScore",
          "type": "int16"
        },
        {
          "internalType": "int16",
          "name": "awayTeamScore",
          "type": "int16"
        }
      ],
      "stateMutability": "view",
      "type": "function",
      "constant": true
    },
    {
      "inputs": [],
      "name": "homeTeamId",
      "outputs": [
        {
          "internalType": "string",
          "name": "",
          "type": "string"
        }
      ],
      "stateMutability": "view",
      "type": "function",
      "constant": true
    },
    {
      "inputs": [],
      "name": "jackpot",
      "outputs": [
        {
          "internalType": "uint256",
          "name": "",
          "type": "uint256"
        }
      ],
      "stateMutability": "view",
      "type": "function",
      "constant": true
    },
    {
      "inputs": [
        {
          "internalType": "string",
          "name": "_homeTeamId",
          "type": "string"
        },
        {
          "internalType": "string",
          "name": "_awayTeamId",
          "type": "string"
        }
      ],
      "name": "initialize",
      "outputs": [],
      "stateMutability": "nonpayable",
      "type": "function"
    },
    {
      "inputs": [
        {
          "internalType": "int16",
          "name": "homeTeamScore",
          "type": "int16"
        },
        {
          "internalType": "int16",
          "name": "awayTeamScore",
          "type": "int16"
        }
      ],
      "name": "placeBet",
      "outputs": [],
      "stateMutability": "payable",
      "type": "function",
      "payable": true
    },
    {
      "inputs": [],
      "name": "claimBet",
      "outputs": [
        {
          "internalType": "bool",
          "name": "",
          "type": "bool"
        }
      ],
      "stateMutability": "nonpayable",
      "type": "function"
    },
    {
      "inputs": [
        {
          "internalType": "int16",
          "name": "homeTeamScore",
          "type": "int16"
        },
        {
          "internalType": "int16",
          "name": "awayTeamScore",
          "type": "int16"
        }
      ],
      "name": "setFinalResult",
      "outputs": [],
      "stateMutability": "nonpayable",
      "type": "function"
    }
  ],
  "bytecode": "0x6080604052600060045534801561001557600080fd5b50610e7e806100256000396000f3fe60806040526004361061007b5760003560e01c80636b31ee011161004e5780636b31ee011461029757806397416232146102c2578063cd23e23f14610352578063f3a8286f146103e25761007b565b80630e02dcd61461008057806323cdfc3c146100af5780632d85814a146100ed5780634cd88b7614610138575b600080fd5b34801561008c57600080fd5b50610095610420565b604051808215151515815260200191505060405180910390f35b6100eb600480360360408110156100c557600080fd5b81019080803560010b9060200190929190803560010b906020019092919050505061060d565b005b3480156100f957600080fd5b506101366004803603604081101561011057600080fd5b81019080803560010b9060200190929190803560010b906020019092919050505061084b565b005b34801561014457600080fd5b506102956004803603604081101561015b57600080fd5b810190808035906020019064010000000081111561017857600080fd5b82018360208201111561018a57600080fd5b803590602001918460018302840111640100000000831117156101ac57600080fd5b91908080601f016020809104026020016040519081016040528093929190818152602001838380828437600081840152601f19601f8201169050808301925050505050505091929192908035906020019064010000000081111561020f57600080fd5b82018360208201111561022157600080fd5b8035906020019184600183028401116401000000008311171561024357600080fd5b91908080601f016020809104026020016040519081016040528093929190818152602001838380828437600081840152601f19601f8201169050808301925050505050505091929192905050506109b1565b005b3480156102a357600080fd5b506102ac610b8c565b6040518082815260200191505060405180910390f35b3480156102ce57600080fd5b506102d7610b92565b6040518080602001828103825283818151815260200191508051906020019080838360005b838110156103175780820151818401526020810190506102fc565b50505050905090810190601f1680156103445780820380516001836020036101000a031916815260200191505b509250505060405180910390f35b34801561035e57600080fd5b50610367610c30565b6040518080602001828103825283818151815260200191508051906020019080838360005b838110156103a757808201518184015260208101905061038c565b50505050905090810190601f1680156103d45780820380516001836020036101000a031916815260200191505b509250505060405180910390f35b3480156103ee57600080fd5b506103f7610cce565b604051808360010b60010b81526020018260010b60010b81526020019250505060405180910390f35b60008060009050600080905060008090505b60038054905081101561055a5760006003828154811061044e57fe5b906000526020600020906002020190503373ffffffffffffffffffffffffffffffffffffffff168160000160009054906101000a900473ffffffffffffffffffffffffffffffffffffffff1673ffffffffffffffffffffffffffffffffffffffff161480156104e85750600560000160009054906101000a900460010b60010b8160010160000160009054906101000a900460010b60010b145b801561051f5750600560000160029054906101000a900460010b60010b8160010160000160029054906101000a900460010b60010b145b801561053a57508060000160149054906101000a900460ff16155b1561054c57600192508193505061055a565b508080600101915050610432565b5080156106035760006003838154811061057057fe5b9060005260206000209060020201905060018160000160146101000a81548160ff0219169083151502179055503373ffffffffffffffffffffffffffffffffffffffff166108fc6004549081150290604051600060405180830381858888f193505050506106015760008160000160146101000a81548160ff0219169083151502179055506000935050505061060a565b505b6001925050505b90565b7fffffffffffffffffffffffffffffffffffffffffffffffffffffffffffffffff8260010b13610688576040517f08c379a0000000000000000000000000000000000000000000000000000000008152600401808060200182810382526032815260200180610e176032913960400191505060405180910390fd5b7fffffffffffffffffffffffffffffffffffffffffffffffffffffffffffffffff8160010b13610703576040517f08c379a0000000000000000000000000000000000000000000000000000000008152600401808060200182810382526032815260200180610db76032913960400191505060405180910390fd5b600360405180606001604052803373ffffffffffffffffffffffffffffffffffffffff16815260200160001515815260200160405180604001604052808660010b81526020018560010b815250815250908060018154018082558091505060019003906000526020600020906002020160009091909190915060008201518160000160006101000a81548173ffffffffffffffffffffffffffffffffffffffff021916908373ffffffffffffffffffffffffffffffffffffffff16021790555060208201518160000160146101000a81548160ff02191690831515021790555060408201518160010160008201518160000160006101000a81548161ffff021916908360010b61ffff16021790555060208201518160000160026101000a81548161ffff021916908360010b61ffff1602179055505050505034600454016004819055505050565b7fffffffffffffffffffffffffffffffffffffffffffffffffffffffffffffffff8260010b136108c6576040517f08c379a0000000000000000000000000000000000000000000000000000000008152600401808060200182810382526032815260200180610e176032913960400191505060405180910390fd5b7fffffffffffffffffffffffffffffffffffffffffffffffffffffffffffffffff8160010b13610941576040517f08c379a0000000000000000000000000000000000000000000000000000000008152600401808060200182810382526032815260200180610db76032913960400191505060405180910390fd5b60405180604001604052808360010b81526020018260010b815250600560008201518160000160006101000a81548161ffff021916908360010b61ffff16021790555060208201518160000160026101000a81548161ffff021916908360010b61ffff1602179055509050505050565b600060019054906101000a900460ff16806109d057506109cf610cfa565b5b806109e757506000809054906101000a900460ff16155b610a3c576040517f08c379a000000000000000000000000000000000000000000000000000000000815260040180806020018281038252602e815260200180610de9602e913960400191505060405180910390fd5b60008060019054906101000a900460ff161590508015610a8c576001600060016101000a81548160ff02191690831515021790555060016000806101000a81548160ff0219169083151502179055505b8260019080519060200190610aa2929190610d11565b508160029080519060200190610ab9929190610d11565b5060405180604001604052807fffffffffffffffffffffffffffffffffffffffffffffffffffffffffffffffff60010b81526020017fffffffffffffffffffffffffffffffffffffffffffffffffffffffffffffffff60010b815250600560008201518160000160006101000a81548161ffff021916908360010b61ffff16021790555060208201518160000160026101000a81548161ffff021916908360010b61ffff1602179055509050508015610b875760008060016101000a81548160ff0219169083151502179055505b505050565b60045481565b60018054600181600116156101000203166002900480601f016020809104026020016040519081016040528092919081815260200182805460018160011615610100020316600290048015610c285780601f10610bfd57610100808354040283529160200191610c28565b820191906000526020600020905b815481529060010190602001808311610c0b57829003601f168201915b505050505081565b60028054600181600116156101000203166002900480601f016020809104026020016040519081016040528092919081815260200182805460018160011615610100020316600290048015610cc65780601f10610c9b57610100808354040283529160200191610cc6565b820191906000526020600020905b815481529060010190602001808311610ca957829003601f168201915b505050505081565b60058060000160009054906101000a900460010b908060000160029054906101000a900460010b905082565b6000803090506000813b9050600081149250505090565b828054600181600116156101000203166002900490600052602060002090601f016020900481019282601f10610d5257805160ff1916838001178555610d80565b82800160010185558215610d80579182015b82811115610d7f578251825591602001919060010190610d64565b5b509050610d8d9190610d91565b5090565b610db391905b80821115610daf576000816000905550600101610d97565b5090565b9056fe41776179205465616d2053636f7265206d7573742062652067726561746572207468616e206f7220657175616c20746f2030496e697469616c697a61626c653a20636f6e747261637420697320616c726561647920696e697469616c697a6564486f6d65205465616d2053636f7265206d7573742062652067726561746572207468616e206f7220657175616c20746f2030a2646970667358221220f870d09109e96285da291f31dd74c3276b0b3147a1662e369b35b3cefd7bf30564736f6c63430006000033",
  "source": "// SPDX-License-Identifier: MIT\npragma solidity ^0.6.0;\n\nimport '../node_modules/@openzeppelin/contracts/proxy/Initializable.sol';\n\ncontract Match is Initializable {\n  struct MatchResult {\n    int16 homeTeamScore;\n    int16 awayTeamScore;\n  }\n\n  struct Bet {\n    address payable author;\n    bool payed;\n    MatchResult result;\n  }\n\n  string public homeTeamId;\n  string public awayTeamId;\n  // uint public matchStartDate; // Unix timestamp depicting start date\n  // uint public matchEndDate; // Unix timestamp depicting end date\n  Bet[] bets; // Using a list allows for a user to make multiple bets\n  uint public jackpot = 0;\n\n  // TODO: Temporaly store match result\n  MatchResult public finalResult;\n\n  // TODO: implement modifiers!\n  // modifier matchHasNotStarted() { require(block.timestamp < time); _; }\n  // modifier matchHasEnded() { require(block.timestamp > time); _; }\n\n  // constructor(string _homeTeamId, string _awayTeamId, uint _matchStartDate, uint _matchEndDate) {\n  // constructor(string memory _homeTeamId, string memory _awayTeamId) public {\n  //   homeTeamId = _homeTeamId;\n  //   awayTeamId = _awayTeamId;\n  //   // matchStartDate = _matchStartDate;\n  //   // matchEndDate = _matchEndDate;\n  // }\n\n  function initialize(string memory _homeTeamId, string memory _awayTeamId) public initializer {\n    homeTeamId = _homeTeamId;\n    awayTeamId = _awayTeamId;\n\n    // Init final result with negatives values\n    finalResult = MatchResult({\n      homeTeamScore: -1,\n      awayTeamScore: -1\n    });\n  }\n\n  function placeBet(int16 homeTeamScore, int16 awayTeamScore) public payable {\n    require(homeTeamScore > -1, \"Home Team Score must be greater than or equal to 0\");\n    require(awayTeamScore > -1, \"Away Team Score must be greater than or equal to 0\");\n\n    bets.push(Bet({\n      result: MatchResult({\n        homeTeamScore: homeTeamScore,\n        awayTeamScore: awayTeamScore\n      }),\n      author: msg.sender,\n      payed: false\n    }));\n\n    jackpot = jackpot + msg.value;\n  }\n\n  function claimBet() public returns(bool) {\n    // TODO: require match end\n  \n    uint selectedBetIndex = 0;\n    bool found = false;\n\n    for(uint i = 0; i < bets.length; i++) {\n      // Find bet\n      // - author === to sender\n      // - bet result === finalResult\n      // - not payed\n      Bet storage currentBet = bets[i];\n      if (\n        currentBet.author == msg.sender &&\n        currentBet.result.homeTeamScore == finalResult.homeTeamScore &&\n        currentBet.result.awayTeamScore == finalResult.awayTeamScore &&\n        !currentBet.payed\n      ) {\n        found = true;\n        selectedBetIndex = i;\n        break;\n      }\n    }\n\n    // If a bet was found\n    if(found) {\n      Bet storage selectedBet = bets[selectedBetIndex];\n\n      // Mark bet as payed\n      selectedBet.payed = true;\n\n      if(!msg.sender.send(jackpot)) {\n        selectedBet.payed = false;\n        return false;\n      }\n    }\n\n    return true;\n  }\n\n  function setFinalResult(int16 homeTeamScore, int16 awayTeamScore) public {\n    require(homeTeamScore > -1, \"Home Team Score must be greater than or equal to 0\");\n    require(awayTeamScore > -1, \"Away Team Score must be greater than or equal to 0\");\n  \n    finalResult = MatchResult({\n      homeTeamScore: homeTeamScore,\n      awayTeamScore: awayTeamScore\n    });\n  }\n}\n",
  "sourcePath": "/Users/surbina/playground/prode/contracts/Match.sol",
  "compiler": {
    "name": "solc",
    "version": "0.6.0+commit.26b70077.Emscripten.clang"
  },
  "schemaVersion": "3.2.5",
  "updatedAt": "2020-12-05T21:33:20.834Z",
  "networkType": "ethereum",
  "devdoc": {
    "methods": {}
  },
  "userdoc": {
    "methods": {}
  }
}