{
  "contractName": "Match",
  "abi": [
    {
      "inputs": [],
      "name": "awayTeamId",
      "outputs": [
        {
          "internalType": "string",
          "name": "",
          "type": "string"
        }
      ],
      "stateMutability": "view",
      "type": "function"
    },
    {
      "inputs": [],
      "name": "finalResult",
      "outputs": [
        {
          "internalType": "int16",
          "name": "homeTeamScore",
          "type": "int16"
        },
        {
          "internalType": "int16",
          "name": "awayTeamScore",
          "type": "int16"
        }
      ],
      "stateMutability": "view",
      "type": "function"
    },
    {
      "inputs": [],
      "name": "homeTeamId",
      "outputs": [
        {
          "internalType": "string",
          "name": "",
          "type": "string"
        }
      ],
      "stateMutability": "view",
      "type": "function"
    },
    {
      "inputs": [],
      "name": "jackpot",
      "outputs": [
        {
          "internalType": "uint256",
          "name": "",
          "type": "uint256"
        }
      ],
      "stateMutability": "view",
      "type": "function"
    },
    {
      "inputs": [],
      "name": "matchStartDate",
      "outputs": [
        {
          "internalType": "uint256",
          "name": "",
          "type": "uint256"
        }
      ],
      "stateMutability": "view",
      "type": "function"
    },
    {
      "inputs": [],
      "name": "prizeAmount",
      "outputs": [
        {
          "internalType": "uint256",
          "name": "",
          "type": "uint256"
        }
      ],
      "stateMutability": "view",
      "type": "function"
    },
    {
      "inputs": [
        {
          "internalType": "string",
          "name": "_homeTeamId",
          "type": "string"
        },
        {
          "internalType": "string",
          "name": "_awayTeamId",
          "type": "string"
        },
        {
          "internalType": "uint256",
          "name": "_matchStartDate",
          "type": "uint256"
        },
        {
          "internalType": "address",
          "name": "_owner",
          "type": "address"
        }
      ],
      "name": "initialize",
      "outputs": [],
      "stateMutability": "nonpayable",
      "type": "function"
    },
    {
      "inputs": [
        {
          "internalType": "int16",
          "name": "homeTeamScore",
          "type": "int16"
        },
        {
          "internalType": "int16",
          "name": "awayTeamScore",
          "type": "int16"
        }
      ],
      "name": "placeBet",
      "outputs": [],
      "stateMutability": "payable",
      "type": "function"
    },
    {
      "inputs": [
        {
          "internalType": "address",
          "name": "user",
          "type": "address"
        }
      ],
      "name": "hasPlacedBet",
      "outputs": [
        {
          "internalType": "bool",
          "name": "isIndeed",
          "type": "bool"
        }
      ],
      "stateMutability": "view",
      "type": "function"
    },
    {
      "inputs": [
        {
          "internalType": "int16",
          "name": "homeTeamScore",
          "type": "int16"
        },
        {
          "internalType": "int16",
          "name": "awayTeamScore",
          "type": "int16"
        }
      ],
      "name": "isBetSuccessful",
      "outputs": [
        {
          "internalType": "bool",
          "name": "isIndeed",
          "type": "bool"
        }
      ],
      "stateMutability": "view",
      "type": "function"
    },
    {
      "inputs": [],
      "name": "claimBet",
      "outputs": [
        {
          "internalType": "bool",
          "name": "",
          "type": "bool"
        }
      ],
      "stateMutability": "nonpayable",
      "type": "function"
    },
    {
      "inputs": [],
      "name": "getCurrentBet",
      "outputs": [
        {
          "internalType": "int16",
          "name": "homeTeamScore",
          "type": "int16"
        },
        {
          "internalType": "int16",
          "name": "awayTeamScore",
          "type": "int16"
        }
      ],
      "stateMutability": "view",
      "type": "function"
    },
    {
      "inputs": [
        {
          "internalType": "int16",
          "name": "homeTeamScore",
          "type": "int16"
        },
        {
          "internalType": "int16",
          "name": "awayTeamScore",
          "type": "int16"
        }
      ],
      "name": "setFinalResult",
      "outputs": [],
      "stateMutability": "nonpayable",
      "type": "function"
    }
  ],
  "bytecode": "0x60806040526000600655600060075534801561001a57600080fd5b5061190f8061002a6000396000f3fe6080604052600436106100c25760003560e01c806377defb581161007f578063b789748511610059578063b78974851461035c578063bd3a13f61461039a578063cd23e23f14610523578063f3a8286f146105b3576100c2565b806377defb581461023e578063785fa627146102a157806397416232146102cc576100c2565b80630e02dcd6146100c757806311436b56146100f657806323cdfc3c1461015f5780632d85814a1461019d57806369d81b43146101e85780636b31ee0114610213575b600080fd5b3480156100d357600080fd5b506100dc6105f1565b604051808215151515815260200191505060405180910390f35b34801561010257600080fd5b506101456004803603602081101561011957600080fd5b81019080803573ffffffffffffffffffffffffffffffffffffffff16906020019092919050505061091b565b604051808215151515815260200191505060405180910390f35b61019b6004803603604081101561017557600080fd5b81019080803560010b9060200190929190803560010b90602001909291905050506109e3565b005b3480156101a957600080fd5b506101e6600480360360408110156101c057600080fd5b81019080803560010b9060200190929190803560010b9060200190929190505050610d42565b005b3480156101f457600080fd5b506101fd611086565b6040518082815260200191505060405180910390f35b34801561021f57600080fd5b5061022861108c565b6040518082815260200191505060405180910390f35b34801561024a57600080fd5b506102876004803603604081101561026157600080fd5b81019080803560010b9060200190929190803560010b9060200190929190505050611092565b604051808215151515815260200191505060405180910390f35b3480156102ad57600080fd5b506102b6611222565b6040518082815260200191505060405180910390f35b3480156102d857600080fd5b506102e1611228565b6040518080602001828103825283818151815260200191508051906020019080838360005b83811015610321578082015181840152602081019050610306565b50505050905090810190601f16801561034e5780820380516001836020036101000a031916815260200191505b509250505060405180910390f35b34801561036857600080fd5b506103716112c6565b604051808360010b60010b81526020018260010b60010b81526020019250505060405180910390f35b3480156103a657600080fd5b50610521600480360360808110156103bd57600080fd5b81019080803590602001906401000000008111156103da57600080fd5b8201836020820111156103ec57600080fd5b8035906020019184600183028401116401000000008311171561040e57600080fd5b91908080601f016020809104026020016040519081016040528093929190818152602001838380828437600081840152601f19601f8201169050808301925050505050505091929192908035906020019064010000000081111561047157600080fd5b82018360208201111561048357600080fd5b803590602001918460018302840111640100000000831117156104a557600080fd5b91908080601f016020809104026020016040519081016040528093929190818152602001838380828437600081840152601f19601f82011690508083019250505050505050919291929080359060200190929190803573ffffffffffffffffffffffffffffffffffffffff1690602001909291905050506113eb565b005b34801561052f57600080fd5b50610538611669565b6040518080602001828103825283818151815260200191508051906020019080838360005b8381101561057857808201518184015260208101905061055d565b50505050905090810190601f1680156105a55780820380516001836020036101000a031916815260200191505b509250505060405180910390f35b3480156105bf57600080fd5b506105c8611707565b604051808360010b60010b81526020018260010b60010b81526020019250505060405180910390f35b600061384060055401421161066e576040517f08c379a000000000000000000000000000000000000000000000000000000000815260040180806020018281038252601b8152602001807f4265742063616e6e6f7420626520636f6c6c656374656420796574000000000081525060200191505060405180910390fd5b7fffffffffffffffffffffffffffffffffffffffffffffffffffffffffffffffff600960000160009054906101000a900460010b60010b1380156106e657507fffffffffffffffffffffffffffffffffffffffffffffffffffffffffffffffff600960000160029054906101000a900460010b60010b135b61073b576040517f08c379a00000000000000000000000000000000000000000000000000000000081526004018080602001828103825260248152602001806118b66024913960400191505060405180910390fd5b6107443361091b565b6107b6576040517f08c379a000000000000000000000000000000000000000000000000000000000815260040180806020018281038252601b8152602001807f5573657220686173206e6f7420706c6163656420616e7920626574000000000081525060200191505060405180910390fd5b6107be61174a565b600160003373ffffffffffffffffffffffffffffffffffffffff1673ffffffffffffffffffffffffffffffffffffffff1681526020019081526020016000206040518060600160405290816000820160009054906101000a900460ff16151515158152602001600182016040518060400160405290816000820160009054906101000a900460010b60010b60010b81526020016000820160029054906101000a900460010b60010b60010b815250508152602001600282015481525050905080600001511580156108a557506108a4816020015160000151826020015160200151611092565b5b156109125760018160000190151590811515815250503373ffffffffffffffffffffffffffffffffffffffff166108fc6007549081150290604051600060405180830381858888f193505050506109115760008160000190151590811515815250506000915050610918565b5b60019150505b90565b600080600280549050141561093357600090506109de565b8173ffffffffffffffffffffffffffffffffffffffff166002600160008573ffffffffffffffffffffffffffffffffffffffff1673ffffffffffffffffffffffffffffffffffffffff168152602001908152602001600020600201548154811061099957fe5b9060005260206000200160009054906101000a900473ffffffffffffffffffffffffffffffffffffffff1673ffffffffffffffffffffffffffffffffffffffff161490505b919050565b610e10600554034210610a5e576040517f08c379a000000000000000000000000000000000000000000000000000000000815260040180806020018281038252600f8152602001807f426574732061726520636c6f736564000000000000000000000000000000000081525060200191505060405180910390fd5b7fffffffffffffffffffffffffffffffffffffffffffffffffffffffffffffffff8260010b138015610ab257507fffffffffffffffffffffffffffffffffffffffffffffffffffffffffffffffff8160010b135b610b07576040517f08c379a00000000000000000000000000000000000000000000000000000000081526004018080602001828103825260288152602001806118676028913960400191505060405180910390fd5b610b103361091b565b15610bc65760405180604001604052808360010b81526020018260010b815250600160003373ffffffffffffffffffffffffffffffffffffffff1673ffffffffffffffffffffffffffffffffffffffff16815260200190815260200160002060010160008201518160000160006101000a81548161ffff021916908360010b61ffff16021790555060208201518160000160026101000a81548161ffff021916908360010b61ffff160217905550905050610d33565b6002339080600181540180825580915050600190039060005260206000200160009091909190916101000a81548173ffffffffffffffffffffffffffffffffffffffff021916908373ffffffffffffffffffffffffffffffffffffffff16021790555060006001600280549050039050604051806060016040528060001515815260200160405180604001604052808660010b81526020018560010b815250815260200182815250600160003373ffffffffffffffffffffffffffffffffffffffff1673ffffffffffffffffffffffffffffffffffffffff16815260200190815260200160002060008201518160000160006101000a81548160ff02191690831515021790555060208201518160010160008201518160000160006101000a81548161ffff021916908360010b61ffff16021790555060208201518160000160026101000a81548161ffff021916908360010b61ffff160217905550505060408201518160020155905050505b34600654016006819055505050565b3373ffffffffffffffffffffffffffffffffffffffff16600860009054906101000a900473ffffffffffffffffffffffffffffffffffffffff1673ffffffffffffffffffffffffffffffffffffffff1614610e05576040517f08c379a00000000000000000000000000000000000000000000000000000000081526004018080602001828103825260178152602001807f43616c6c6572206973206e6f7420746865206f776e657200000000000000000081525060200191505060405180910390fd5b7fffffffffffffffffffffffffffffffffffffffffffffffffffffffffffffffff8260010b138015610e5957507fffffffffffffffffffffffffffffffffffffffffffffffffffffffffffffffff8160010b135b610eae576040517f08c379a00000000000000000000000000000000000000000000000000000000081526004018080602001828103825260288152602001806118676028913960400191505060405180910390fd5b60405180604001604052808360010b81526020018260010b815250600960008201518160000160006101000a81548161ffff021916908360010b61ffff16021790555060208201518160000160026101000a81548161ffff021916908360010b61ffff160217905550905050600080905060008090505b60028054905081101561106457610f3a61174a565b6001600060028481548110610f4b57fe5b9060005260206000200160009054906101000a900473ffffffffffffffffffffffffffffffffffffffff1673ffffffffffffffffffffffffffffffffffffffff1673ffffffffffffffffffffffffffffffffffffffff1681526020019081526020016000206040518060600160405290816000820160009054906101000a900460ff16151515158152602001600182016040518060400160405290816000820160009054906101000a900460010b60010b60010b81526020016000820160029054906101000a900460010b60010b60010b815250508152602001600282015481525050905061104a816020015160000151826020015160200151611092565b15611056576001830192505b508080600101915050610f25565b50600081111561108157806006548161107957fe5b046007819055505b505050565b60055481565b60065481565b600061384060055401421161110f576040517f08c379a000000000000000000000000000000000000000000000000000000000815260040180806020018281038252601b8152602001807f4265742063616e6e6f7420626520636f6c6c656374656420796574000000000081525060200191505060405180910390fd5b7fffffffffffffffffffffffffffffffffffffffffffffffffffffffffffffffff600960000160009054906101000a900460010b60010b13801561118757507fffffffffffffffffffffffffffffffffffffffffffffffffffffffffffffffff600960000160029054906101000a900460010b60010b135b6111dc576040517f08c379a00000000000000000000000000000000000000000000000000000000081526004018080602001828103825260248152602001806118b66024913960400191505060405180910390fd5b8260010b600960000160009054906101000a900460010b60010b14801561121a57508160010b600960000160029054906101000a900460010b60010b145b905092915050565b60075481565b60038054600181600116156101000203166002900480601f0160208091040260200160405190810160405280929190818152602001828054600181600116156101000203166002900480156112be5780601f10611293576101008083540402835291602001916112be565b820191906000526020600020905b8154815290600101906020018083116112a157829003601f168201915b505050505081565b6000806112d23361091b565b156113ba576112df61174a565b600160003373ffffffffffffffffffffffffffffffffffffffff1673ffffffffffffffffffffffffffffffffffffffff1681526020019081526020016000206040518060600160405290816000820160009054906101000a900460ff16151515158152602001600182016040518060400160405290816000820160009054906101000a900460010b60010b60010b81526020016000820160029054906101000a900460010b60010b60010b815250508152602001600282015481525050905080602001516000015181602001516020015192509250506113e7565b7fffffffffffffffffffffffffffffffffffffffffffffffffffffffffffffffff80819150809050915091505b9091565b600060019054906101000a900460ff168061140a5750611409611733565b5b8061142157506000809054906101000a900460ff16155b611476576040517f08c379a000000000000000000000000000000000000000000000000000000000815260040180806020018281038252602e815260200180611839602e913960400191505060405180910390fd5b60008060019054906101000a900460ff1615905080156114c6576001600060016101000a81548160ff02191690831515021790555060016000806101000a81548160ff0219169083151502179055505b6000831161151f576040517f08c379a000000000000000000000000000000000000000000000000000000000815260040180806020018281038252602781526020018061188f6027913960400191505060405180910390fd5b8460039080519060200190611535929190611773565b50836004908051906020019061154c929190611773565b508260058190555081600860006101000a81548173ffffffffffffffffffffffffffffffffffffffff021916908373ffffffffffffffffffffffffffffffffffffffff16021790555060405180604001604052807fffffffffffffffffffffffffffffffffffffffffffffffffffffffffffffffff60010b81526020017fffffffffffffffffffffffffffffffffffffffffffffffffffffffffffffffff60010b815250600960008201518160000160006101000a81548161ffff021916908360010b61ffff16021790555060208201518160000160026101000a81548161ffff021916908360010b61ffff16021790555090505080156116625760008060016101000a81548160ff0219169083151502179055505b5050505050565b60048054600181600116156101000203166002900480601f0160208091040260200160405190810160405280929190818152602001828054600181600116156101000203166002900480156116ff5780601f106116d4576101008083540402835291602001916116ff565b820191906000526020600020905b8154815290600101906020018083116116e257829003601f168201915b505050505081565b60098060000160009054906101000a900460010b908060000160029054906101000a900460010b905082565b6000803090506000813b9050600081149250505090565b60405180606001604052806000151581526020016117666117f3565b8152602001600081525090565b828054600181600116156101000203166002900490600052602060002090601f016020900481019282601f106117b457805160ff19168380011785556117e2565b828001600101855582156117e2579182015b828111156117e15782518255916020019190600101906117c6565b5b5090506117ef9190611813565b5090565b6040518060400160405280600060010b8152602001600060010b81525090565b61183591905b80821115611831576000816000905550600101611819565b5090565b9056fe496e697469616c697a61626c653a20636f6e747261637420697320616c726561647920696e697469616c697a656453636f7265206d7573742062652067726561746572207468616e206f7220657175616c20746f20304d617463682073746172742064617465206d7573742062652067726561746572207468616e203046696e616c20726573756c7420686173206e6f74206265656e206c6f6164656420796574a26469706673582212208cb4d10aa9466619abe8356f06e57e623d2d4de07972c7118f11e6b6e719ec9f64736f6c63430006000033",
  "source": "// SPDX-License-Identifier: MIT\npragma solidity ^0.6.0;\n\nimport '../node_modules/@openzeppelin/contracts/proxy/Initializable.sol';\n\ncontract Match is Initializable {\n  struct MatchResult {\n    int16 homeTeamScore;\n    int16 awayTeamScore;\n  }\n\n  struct Bet {\n    bool payed;\n    MatchResult result;\n    uint listPointer;\n  }\n  mapping (address => Bet) betsMap;\n  address[] gamblers;\n\n  string public homeTeamId;\n  string public awayTeamId;\n  uint public matchStartDate; // Unix timestamp depicting start date\n\n  uint public jackpot = 0;\n  uint public prizeAmount = 0; // Calculated after the final result is know, hold the amount of ether each winner will get\n\n  address private owner;\n  MatchResult public finalResult;\n\n  /////////////////////\n  //     Modifiers    //\n  /////////////////////\n\n  modifier betsAreOpen() {\n    // Users can place bet up to one hour before the match starts\n    // This is because when creating a block a node can select as timestamp a value that's up to 15 minutes in the future\n    require(\n      block.timestamp < (matchStartDate - 1 hours),\n      'Bets are closed'\n    );\n    _;\n  }\n\n  modifier canCollectPrizes() {\n    // Users can claim bets 4 hours after the match hast started\n    // This is because the time a match ends is not know in advance and because\n    // When creating a block a node can select as timestamp a value that's up to 15 minutes in the future\n    require(\n      block.timestamp > (matchStartDate + 4 hours),\n      'Bet cannot be collected yet'\n    );\n    require(\n      finalResult.homeTeamScore > -1 && finalResult.awayTeamScore > -1,\n      'Final result has not been loaded yet'\n    );\n    _;\n  }\n\n  modifier userHasPlacedBet() {\n    // Validates a user has actually placed a bet for this match\n    require(\n      hasPlacedBet(msg.sender),\n      'User has not placed any bet'\n    );\n    _;\n  }\n\n  modifier onlyOwner() {\n    // Only the owner can execute this method\n    require(owner == msg.sender, \"Caller is not the owner\");\n    _;\n  }\n\n  // initialize function replaces constructor\n  // check the Initializable contract for further information\n  function initialize(\n    string memory _homeTeamId,\n    string memory _awayTeamId,\n    uint _matchStartDate,\n    address _owner\n  ) public initializer {\n    require(_matchStartDate > 0, 'Match start date must be greater than 0');\n\n    homeTeamId = _homeTeamId;\n    awayTeamId = _awayTeamId;\n    matchStartDate = _matchStartDate;\n    owner = _owner;\n\n    // Init final result with negatives values\n    finalResult = MatchResult({\n      homeTeamScore: -1,\n      awayTeamScore: -1\n    });\n  }\n\n  /////////////////////\n  //  User functions //\n  /////////////////////\n\n  function placeBet(\n    int16 homeTeamScore,\n    int16 awayTeamScore\n  ) public payable betsAreOpen {\n    require(\n      homeTeamScore > -1 && awayTeamScore > -1,\n      'Score must be greater than or equal to 0'\n    );\n\n    if(hasPlacedBet(msg.sender)) {\n      // If the user already placed a bet, override current result\n      betsMap[msg.sender].result = MatchResult({\n        homeTeamScore: homeTeamScore,\n        awayTeamScore: awayTeamScore\n      });\n    } else {\n      // If the users has not placed a bet, create and store a new bet\n      gamblers.push(msg.sender);\n      uint index = gamblers.length - 1;\n\n      betsMap[msg.sender] = Bet({\n        payed: false,\n        result: MatchResult({\n          homeTeamScore: homeTeamScore,\n          awayTeamScore: awayTeamScore\n        }),\n        listPointer: index\n      });\n    }\n\n    jackpot = jackpot + msg.value;\n  }\n\n  function hasPlacedBet(address user) public view returns(bool isIndeed) {\n    if(gamblers.length == 0) return false;\n    return (gamblers[betsMap[user].listPointer] == user);\n  }\n\n  function isBetSuccessful(\n    int16 homeTeamScore,\n    int16 awayTeamScore\n  ) public view canCollectPrizes returns(bool isIndeed) {\n    return finalResult.homeTeamScore == homeTeamScore && finalResult.awayTeamScore == awayTeamScore;\n  }\n\n  function claimBet() public canCollectPrizes userHasPlacedBet returns(bool) {\n    Bet memory bet = betsMap[msg.sender];\n\n    // If bet has not been paid yet and is successful\n    if(\n      !bet.payed &&\n      isBetSuccessful(bet.result.homeTeamScore, bet.result.awayTeamScore)\n    ) {\n      // Mark bet as payed\n      bet.payed = true;\n      // Attemp sending money\n      if(!msg.sender.send(prizeAmount)) {\n        bet.payed = false;\n        return false;\n      }\n    }\n\n    return true;\n  }\n\n  function getCurrentBet() public view returns(int16 homeTeamScore, int16 awayTeamScore) {\n    if(hasPlacedBet(msg.sender)) {\n      Bet memory bet = betsMap[msg.sender];\n\n      return (\n        bet.result.homeTeamScore,\n        bet.result.awayTeamScore\n      );\n    }\n\n    // If the user has not placed any bet return -1\n    return(-1, -1);\n  }\n\n  /////////////////////\n  // Admin functions //\n  /////////////////////\n\n  function setFinalResult(\n    int16 homeTeamScore,\n    int16 awayTeamScore\n  ) public onlyOwner {\n    require(\n      homeTeamScore > -1 && awayTeamScore > -1,\n      \"Score must be greater than or equal to 0\"\n    );\n  \n    finalResult = MatchResult({\n      homeTeamScore: homeTeamScore,\n      awayTeamScore: awayTeamScore\n    });\n\n    // Calculate amount to pay\n    uint winnersCount = 0;\n\n    for(uint i = 0; i < gamblers.length; i++) {\n      // Count all the bets that were winning bets\n      Bet memory currentBet = betsMap[gamblers[i]];\n      if (isBetSuccessful(currentBet.result.homeTeamScore, currentBet.result.awayTeamScore)) {\n        winnersCount = winnersCount + 1;\n      }\n    }\n\n    // Validate there is at least one winner\n    if(winnersCount > 0) {\n      // uint division will round down the result\n      prizeAmount = jackpot / winnersCount;\n    }\n  }\n}\n",
  "sourcePath": "/Users/surbina/playground/prode/contracts/Match.sol",
  "compiler": {
    "name": "solc",
    "version": "0.6.0+commit.26b70077.Emscripten.clang"
  },
  "schemaVersion": "3.2.5",
  "updatedAt": "2020-12-07T23:11:35.845Z",
  "devdoc": {
    "methods": {}
  },
  "userdoc": {
    "methods": {
      "placeBet(int16,int16)": {
        "notice": "//////////////////"
      },
      "setFinalResult(int16,int16)": {
        "notice": "//////////////////"
      }
    }
  }
}