{
  "contractName": "Match",
  "abi": [
    {
      "inputs": [
        {
          "internalType": "string",
          "name": "_homeTeamId",
          "type": "string"
        },
        {
          "internalType": "string",
          "name": "_awayTeamId",
          "type": "string"
        }
      ],
      "payable": false,
      "stateMutability": "nonpayable",
      "type": "constructor"
    },
    {
      "constant": true,
      "inputs": [],
      "name": "awayTeamId",
      "outputs": [
        {
          "internalType": "string",
          "name": "",
          "type": "string"
        }
      ],
      "payable": false,
      "stateMutability": "view",
      "type": "function"
    },
    {
      "constant": true,
      "inputs": [],
      "name": "finalResult",
      "outputs": [
        {
          "internalType": "uint16",
          "name": "homeTeamScore",
          "type": "uint16"
        },
        {
          "internalType": "uint16",
          "name": "awayTeamScore",
          "type": "uint16"
        }
      ],
      "payable": false,
      "stateMutability": "view",
      "type": "function"
    },
    {
      "constant": true,
      "inputs": [],
      "name": "homeTeamId",
      "outputs": [
        {
          "internalType": "string",
          "name": "",
          "type": "string"
        }
      ],
      "payable": false,
      "stateMutability": "view",
      "type": "function"
    },
    {
      "constant": false,
      "inputs": [
        {
          "internalType": "uint16",
          "name": "homeTeamScore",
          "type": "uint16"
        },
        {
          "internalType": "uint16",
          "name": "awayTeamScore",
          "type": "uint16"
        }
      ],
      "name": "placeBet",
      "outputs": [],
      "payable": true,
      "stateMutability": "payable",
      "type": "function"
    },
    {
      "constant": false,
      "inputs": [],
      "name": "claimBet",
      "outputs": [
        {
          "internalType": "bool",
          "name": "",
          "type": "bool"
        }
      ],
      "payable": false,
      "stateMutability": "nonpayable",
      "type": "function"
    },
    {
      "constant": false,
      "inputs": [
        {
          "internalType": "uint16",
          "name": "homeTeamScore",
          "type": "uint16"
        },
        {
          "internalType": "uint16",
          "name": "awayTeamScore",
          "type": "uint16"
        }
      ],
      "name": "setFinalResult",
      "outputs": [],
      "payable": false,
      "stateMutability": "nonpayable",
      "type": "function"
    }
  ],
  "bytecode": "0x6080604052600060035534801561001557600080fd5b50604051610a52380380610a528339818101604052604081101561003857600080fd5b810190808051604051939291908464010000000082111561005857600080fd5b8382019150602082018581111561006e57600080fd5b825186600182028301116401000000008211171561008b57600080fd5b8083526020830192505050908051906020019080838360005b838110156100bf5780820151818401526020810190506100a4565b50505050905090810190601f1680156100ec5780820380516001836020036101000a031916815260200191505b506040526020018051604051939291908464010000000082111561010f57600080fd5b8382019150602082018581111561012557600080fd5b825186600182028301116401000000008211171561014257600080fd5b8083526020830192505050908051906020019080838360005b8381101561017657808201518184015260208101905061015b565b50505050905090810190601f1680156101a35780820380516001836020036101000a031916815260200191505b5060405250505081600090805190602001906101c09291906101df565b5080600190805190602001906101d79291906101df565b505050610284565b828054600181600116156101000203166002900490600052602060002090601f016020900481019282601f1061022057805160ff191683800117855561024e565b8280016001018555821561024e579182015b8281111561024d578251825591602001919060010190610232565b5b50905061025b919061025f565b5090565b61028191905b8082111561027d576000816000905550600101610265565b5090565b90565b6107bf806102936000396000f3fe6080604052600436106100555760003560e01c80630e02dcd61461005a57806397416232146100895780639ecd636d14610119578063cd23e23f14610159578063ce1c1e9b146101e9578063f3a8286f14610236575b600080fd5b34801561006657600080fd5b5061006f610278565b604051808215151515815260200191505060405180910390f35b34801561009557600080fd5b5061009e61046d565b6040518080602001828103825283818151815260200191508051906020019080838360005b838110156100de5780820151818401526020810190506100c3565b50505050905090810190601f16801561010b5780820380516001836020036101000a031916815260200191505b509250505060405180910390f35b6101576004803603604081101561012f57600080fd5b81019080803561ffff169060200190929190803561ffff16906020019092919050505061050b565b005b34801561016557600080fd5b5061016e610652565b6040518080602001828103825283818151815260200191508051906020019080838360005b838110156101ae578082015181840152602081019050610193565b50505050905090810190601f1680156101db5780820380516001836020036101000a031916815260200191505b509250505060405180910390f35b3480156101f557600080fd5b506102346004803603604081101561020c57600080fd5b81019080803561ffff169060200190929190803561ffff1690602001909291905050506106f0565b005b34801561024257600080fd5b5061024b61075c565b604051808361ffff1661ffff1681526020018261ffff1661ffff1681526020019250505060405180910390f35b60008060009050600080905060008090505b6002805490508110156103ba576000600282815481106102a657fe5b906000526020600020906002020190503373ffffffffffffffffffffffffffffffffffffffff168160000160009054906101000a900473ffffffffffffffffffffffffffffffffffffffff1673ffffffffffffffffffffffffffffffffffffffff161480156103445750600460000160009054906101000a900461ffff1661ffff168160010160000160009054906101000a900461ffff1661ffff16145b801561037f5750600460000160029054906101000a900461ffff1661ffff168160010160000160029054906101000a900461ffff1661ffff16145b801561039a57508060000160149054906101000a900460ff16155b156103ac5760019250819350506103ba565b50808060010191505061028a565b508015610463576000600283815481106103d057fe5b9060005260206000209060020201905060018160000160146101000a81548160ff0219169083151502179055503373ffffffffffffffffffffffffffffffffffffffff166108fc6003549081150290604051600060405180830381858888f193505050506104615760008160000160146101000a81548160ff0219169083151502179055506000935050505061046a565b505b6001925050505b90565b60008054600181600116156101000203166002900480601f0160208091040260200160405190810160405280929190818152602001828054600181600116156101000203166002900480156105035780601f106104d857610100808354040283529160200191610503565b820191906000526020600020905b8154815290600101906020018083116104e657829003601f168201915b505050505081565b600260405180606001604052803373ffffffffffffffffffffffffffffffffffffffff16815260200160001515815260200160405180604001604052808661ffff1681526020018561ffff168152508152509080600181540180825580915050906001820390600052602060002090600202016000909192909190915060008201518160000160006101000a81548173ffffffffffffffffffffffffffffffffffffffff021916908373ffffffffffffffffffffffffffffffffffffffff16021790555060208201518160000160146101000a81548160ff02191690831515021790555060408201518160010160008201518160000160006101000a81548161ffff021916908361ffff16021790555060208201518160000160026101000a81548161ffff021916908361ffff160217905550505050505034600354016003819055505050565b60018054600181600116156101000203166002900480601f0160208091040260200160405190810160405280929190818152602001828054600181600116156101000203166002900480156106e85780601f106106bd576101008083540402835291602001916106e8565b820191906000526020600020905b8154815290600101906020018083116106cb57829003601f168201915b505050505081565b60405180604001604052808361ffff1681526020018261ffff16815250600460008201518160000160006101000a81548161ffff021916908361ffff16021790555060208201518160000160026101000a81548161ffff021916908361ffff1602179055509050505050565b60048060000160009054906101000a900461ffff16908060000160029054906101000a900461ffff1690508256fea265627a7a72315820f7752b7007ae1839cfef8ff738319582a2e907813da5b03f6e6f6ca01fe5166464736f6c63430005100032",
  "source": "// SPDX-License-Identifier: MIT\npragma solidity >=0.5.7 <0.7.0;\n\ncontract Match {\n  struct MatchResult {\n    uint16 homeTeamScore;\n    uint16 awayTeamScore;\n  }\n\n  struct Bet {\n    address payable author;\n    bool payed;\n    MatchResult result;\n  }\n\n  string public homeTeamId;\n  string public awayTeamId;\n  // uint public matchStartDate; // Unix timestamp depicting start date\n  // uint public matchEndDate; // Unix timestamp depicting end date\n  Bet[] bets; // Using a list allows for a user to make multiple bets\n  uint jackpot = 0;\n\n  // TODO: Temporaly store match result\n  MatchResult public finalResult;\n\n  // TODO: implement modifiers!\n  // modifier matchHasNotStarted() { require(block.timestamp < time); _; }\n  // modifier matchHasEnded() { require(block.timestamp > time); _; }\n\n  // constructor(string _homeTeamId, string _awayTeamId, uint _matchStartDate, uint _matchEndDate) {\n  constructor(string memory _homeTeamId, string memory _awayTeamId) public {\n    homeTeamId = _homeTeamId;\n    awayTeamId = _awayTeamId;\n    // matchStartDate = _matchStartDate;\n    // matchEndDate = _matchEndDate;\n  }\n\n  function placeBet(uint16 homeTeamScore, uint16 awayTeamScore) public payable {\n    bets.push(Bet({\n      result: MatchResult({\n        homeTeamScore: homeTeamScore,\n        awayTeamScore: awayTeamScore\n      }),\n      author: msg.sender,\n      payed: false\n    }));\n\n    jackpot = jackpot + msg.value;\n  }\n\n  function claimBet() public returns(bool) {\n    // TODO: require match end\n  \n    uint selectedBetIndex = 0;\n    bool found = false;\n\n    for(uint i = 0; i < bets.length; i++) {\n      // Find bet\n      // - author === to sender\n      // - bet result === finalResult\n      // - not payed\n      Bet storage currentBet = bets[i];\n      if (\n        currentBet.author == msg.sender &&\n        currentBet.result.homeTeamScore == finalResult.homeTeamScore &&\n        currentBet.result.awayTeamScore == finalResult.awayTeamScore &&\n        !currentBet.payed\n      ) {\n        found = true;\n        selectedBetIndex = i;\n        break;\n      }\n    }\n\n    // If a bet was found\n    if(found) {\n      Bet storage selectedBet = bets[selectedBetIndex];\n\n      // Mark bet as payed\n      selectedBet.payed = true;\n\n      if(!msg.sender.send(jackpot)) {\n        selectedBet.payed = false;\n        return false;\n      }\n    }\n\n    return true;\n  }\n\n  function setFinalResult(uint16 homeTeamScore, uint16 awayTeamScore) public {\n    // test\n    finalResult = MatchResult({\n      homeTeamScore: homeTeamScore,\n      awayTeamScore: awayTeamScore\n    });\n  }\n}\n",
  "sourcePath": "/Users/surbina/playground/prode/contracts/Match.sol",
  "compiler": {
    "name": "solc",
    "version": "0.5.16+commit.9c3226ce.Emscripten.clang"
  },
  "schemaVersion": "3.2.5",
  "updatedAt": "2020-11-01T21:42:12.757Z",
  "devdoc": {
    "methods": {}
  },
  "userdoc": {
    "methods": {}
  }
}